:10000000D2C1000001C20000FFC10000FDC100001C
:10001000FBC10000F9C10000F7C10000F5C10000FC
:10002000F3C10000F1C10000EFC10000EDC100000C
:10003000EBC10000E9C10000E7C10000E5C100001C
:10004000E3C10000E1C10000DFC10000DDC100002C
:10005000DBC10000D9C10000D7C100000C94DC193D
:10006000D3C100000C949B17CFC10000CDC100008C
:10007000CBC10000C9C10000C7C10000C5C100005C
:10008000C3C10000C1C10000BFC10000BDC100006C
:10009000BBC10000B9C10000B7C10000B5C100007C
:1000A000B3C10000B1C10000AFC10000ADC100008C
:1000B000ABC10000A9C10000A7C10000A5C100009C
:1000C000A3C10000A1C100009FC100009DC10000AC
:1000D0009BC1000099C1000097C1000095C10000BC
:1000E00093C10000FF1A021BF11AF51AFB1A391B03
:1000F000061B0A1B101B141B181B1E1B221B261B76
:10010000391B2C1B301B341B084AD73B3BCE016EDE
:1001100084BCBFFDC12F3D6C74319ABD56833DDA5E
:100120003D00C77F11BED9E4BB4C3E916BAAAABE6D
:10013000000000803F006F6B005072696E74657242
:100140002073746F707065642064756520746F200F
:100150006572726F72732E2046697820746865200C
:100160006572726F7220616E6420757365204D39FF
:10017000393920746F2072657374617274212E2076
:100180002854656D7065726174757265206973209D
:1001900072657365742E20536574206974206265DE
:1001A000666F72652072657374617274696E672917
:1001B000006F6B004E6F204C696E65204E756D624E
:1001C0006572207769746820636865636B73756D09
:1001D0002C204C617374204C696E653A004E6F2080
:1001E000436865636B73756D2077697468206C690B
:1001F0006E65206E756D6265722C204C6173742083
:100200004C696E653A00636865636B73756D206D4C
:1002100069736D617463682C204C617374204C6940
:100220006E653A004C696E65204E756D6265722090
:100230006973206E6F74204C617374204C696E6515
:10024000204E756D6265722B312C204C61737420C9
:100250004C696E653A007374617274004572726F16
:10026000723A0000000A0B02090C0D0E0807030485
:10027000010000000000000000000000000000007D
:10028000000000000000000000000000000000125C
:10029000111000000000000000000000000000003D
:1002A00000000000000000000001021020200808EB
:1002B00010204010204080020102010804020101C8
:1002C00002040810204080804020100804020180B1
:1002D0000402018040201008040201080402010108
:1002E000020408102040800102040810204080050C
:1002F000050505070508080808020202020A0A089F
:1003000008040404040101010101010101030303C4
:100310000303030303040707070C0C0C0C0C0C0C61
:100320000C0202020206060606060606060B0B0B68
:100330000B0B0B0B0B00002200250028002B002EBE
:10034000003100340002010000050108010B01002A
:10035000002100240027002A002D00300033000176
:10036000010000040107010A014E414E494E495463
:1003700059494E46CDCCCC3D0AD7233C17B7D1388E
:1003800077CC2B329595E6241FB14F0A000020410F
:100390000000C84200401C4620BCBE4CCA1B0E5A7E
:1003A000AEC59D747C0F11241FBECFEFD1E2DEBF1E
:1003B000CDBF00E00CBF12E0A0E0B2E0E0E0F4E46A
:1003C00000E00BBF02C007900D92AE39B107D9F71C
:1003D00025E0AEE9B2E001C01D92A237B207E1F715
:1003E00013E0C6EAD3E000E006C022970109FE014F
:1003F0000BBF0E94F61EC43AD10780E00807A9F798
:100400000E94A91B0C94FE21FBCD40E052EC61E060
:1004100070E081EE94E00E94D417E6E5F2E084916A
:10042000882341F09091C00095FFFCCF8093C600D7
:100430003196F5CF8091C00085FFFCCF8AE0809394
:10044000C60083E694E00E94B11161E0809136021B
:100450000E943A1B61E0809134020E943A1B61E0E5
:10046000809132020E943A1B61E0809130020E942A
:100470003A1B61E0809136020E94731B61E080911B
:1004800034020E94731B61E0809132020E94731B50
:1004900061E0809130020E94731B61E08091100244
:1004A0000E943A1B61E080910E020E943A1B61E0BB
:1004B00080910C020E943A1B61E080910A020E9426
:1004C0003A1B61E0809108020E943A1B61E0809132
:1004D00006020C943A1BCF92DF92EF92FF92CF93D9
:1004E000DF9360E0809134020E94731B61E0809191
:1004F00036020E94731B64E670E080E090E00E9488
:10050000551A61E0809108020E94731BC0E0D0E0A0
:10051000BE01882777FD8095982F0E94E31C6B0110
:100520007C0120E030E040EA52E4609116027091D4
:10053000170280911802909119020E94C31D9B011D
:10054000AC01C701B6010E94441C87FF32C061E0C4
:1005500080910A020E94731B2091120230911302B3
:10056000409114025091150260E070E08AEF93E42C
:100570000E94481C0E94B51CCB010E947A1A60E0C0
:1005800080910A020E94731B209112023091130283
:10059000409114025091150260E070E08AEF93E4FC
:1005A0000E94481C0E94B51CCB010E947A1A219619
:1005B000AFCF64E670E080E090E00E94551A61E001
:1005C000809134020E94731B64E670E080E090E04A
:1005D0000E94551A61E080910E020E94731BC0E0D8
:1005E000D0E0BE01882777FD8095982F0E94E31CFC
:1005F0006B017C0120E030E040EA52E460911E0291
:1006000070911F0280912002909121020E94C31DCF
:100610009B01AC01C701B6010E94441C87FF32C098
:1006200061E0809110020E94731B20911A023091A8
:100630001B0240911C0250911D0260E070E08AEFA5
:1006400093E40E94481C0E94B51CCB010E947A1AB8
:1006500060E0809110020E94731B20911A02309179
:100660001B0240911C0250911D0260E070E08AEF75
:1006700093E40E94481C0E94B51CCB010E947A1A88
:100680002196AFCF64E670E080E090E00E94551ABA
:1006900060E0809136020E94731B64E670E080E0A7
:1006A00090E00E94551A60E0809108020E94731B3E
:1006B000C0E0D0E0BE01882777FD8095982F0E948A
:1006C000E31C6B017C0120E030E040EA52E46091E1
:1006D00016027091170280911802909119020E94DF
:1006E000C31D9B01AC01C701B6010E94441C87FFDA
:1006F00032C061E080910A020E94731B20911202B5
:1007000030911302409114025091150260E070E0A4
:100710008AEF93E40E94481C0E94B51CCB010E9402
:100720007A1A60E080910A020E94731B20911202E3
:1007300030911302409114025091150260E070E074
:100740008AEF93E40E94481C0E94B51CCB010E94D2
:100750007A1A2196AFCF64E670E080E090E00E94C4
:10076000551A61E080913602DF91CF91FF90EF90B2
:10077000DF90CF900C94731B8091A9029091AA02F4
:1007800060E070E001960C941D1F682F772767FDCD
:1007900070952091A7023091A80240E6429FC001C7
:1007A000439F900D11248D549D4F0E94D62190930C
:1007B000AA028093A90221E0892B09F420E0822F6C
:1007C00008950E94261A60939F027093A00280935E
:1007D000A1029093A202E6E3F1E08491882341F024
:1007E0009091C00095FFFCCF8093C6003196F5CF65
:1007F0008091C00085FFFCCF8AE08093C6000895F9
:1008000081EE94E00E942418409133045091340406
:1008100060913504709136044F5F5F4F6F4F7F4F8B
:100820002AE030E081EE94E00E94C2188091C0007E
:1008300085FFFCCF8AE08093C600C3CF4F925F92C2
:100840006F927F929F92AF92BF92CF92DF92EF9280
:10085000FF920F931F93CF93DF9380E6B82EC4E0EF
:10086000D0E009E311E09AE0A92E21EBE22E21E08D
:10087000F22E9924939480916205909163052091C2
:10088000640530916505821B930B8F779927892B1F
:1008900009F41AC28091A3029091A40204970CF06B
:1008A00013C281EE94E00E9408188093AE0220915A
:1008B000AC023091AD028A3061F08D3051F08A3354
:1008C00021F49091AB02992321F02F3531050CF4DE
:1008D000DDC12115310519F41092AB02F5C18091EB
:1008E000A5029091A602B89E6001B99ED00C112479
:1008F000F601E20FF31FED54FD4F10822091AB0281
:100900002111BFC1FC01E155FD4F1082C6018D547C
:100910009D4F3C016EE470E00E94D621009709F4DF
:100920000BC19093AA028093A902861997098C0D96
:100930009D1D4AE050E060E070E08C549D4F0E94A5
:100940008520609337047093380480933904909322
:100950003A04409033045090340460903504709011
:100960003604EFEF4E1A5E0A6E0A7E0AC090A502A8
:10097000D090A602641575058605970509F43AC05E
:10098000BC9CC001BD9C900D11246CE572E08D549F
:100990009D4F0E94E121892B69F5ECE5F2E08491FD
:1009A000882341F09091C00095FFFCCF8093C60052
:1009B0003196F5CFE4E2F2E08491882341F0909102
:1009C000C00095FFFCCF8093C6003196F5CF4091D3
:1009D00033045091340460913504709136042AE058
:1009E00030E081EE94E00E94C2188091C00085FF43
:1009F000FCCF8CC0BC9C3001BD9C700C1124C30189
:100A00008D549D4F2C016AE270E00E94D621009720
:100A100009F450C020E0D12CF301E20FF11DED5498
:100A2000FD4F30813A3219F02F5FD326F5CF9093E6
:100A3000AA028093A90284199509860D971D60E08A
:100A400070E08C549D4F0E941D1F0E94B01C2D2DE4
:100A500030E02617370709F45EC0ECE5F2E0849138
:100A6000882341F09091C00095FFFCCF8093C60091
:100A70003196F5CFE6E0F2E08491882341F0909141
:100A8000C00095FFFCCF8093C6003196F5CF409112
:100A900033045091340460913504709136042AE097
:100AA00030E081EE94E00E94C2188091C00085FF82
:100AB000FCCF2CC0ECE5F2E08491882341F09091CA
:100AC000C00095FFFCCF8093C6003196F5CFEDEDC9
:100AD000F1E08491882341F09091C00095FFFCCF14
:100AE0008093C6003196F5CF409133045091340481
:100AF00060913504709136042AE030E081EE94E094
:100B00000E94C2188091C00085FFFCCF8AE08093CC
:100B1000C60076DE47C08091370490913804A091DA
:100B20003904B0913A048093330490933404A09331
:100B30003504B09336043BC06AE270E0C3010E9402
:100B4000D621892BA1F1ECE5F2E08491882341F0D4
:100B50009091C00095FFFCCF8093C6003196F5CFF1
:100B6000E4EBF1E08491882341F09091C00095FF7F
:100B7000FCCF8093C6003196F5CF4091330450915D
:100B8000340460913504709136042AE030E081EE3F
:100B900094E00E94C2188091C00085FFFCCF8AE0DB
:100BA0008093C6001092AD021092AC028DC080916D
:100BB000A5029091A602B89E6001B99ED00C1124A6
:100BC000F601ED54FD4F3F0167E470E0CF010E9454
:100BD000D621009709F440C09093AA028093A902FD
:100BE000861997098C0D9D1D60E070E08C549D4F17
:100BF0000E941D1F0E94B01C6430710568F5809131
:100C00009E02811114C0F7018491E1EBF1E0882389
:100C100049F09091C00095FFFCCF8093C6003196BB
:100C20008491F5CF8091C00085FFFCCF13C0F801FF
:100C30008491E9E3F1E0882349F09091C00095FFA9
:100C4000FCCF8093C60031968491F5CF8091C0008F
:100C500085FFFCCFA092C6008091A5029091A602CC
:100C60000196BE010E948F1E9093A6028093A5025A
:100C70008091A3029091A40201969093A402809384
:100C8000A3021092AD021092AC02F5CD8B3311F499
:100C90009092AB029091AB029111EDCD4091A502E3
:100CA0005091A602B9016F5F7F4F7093AD026093C0
:100CB000AC02B49EF001B59EF00D1124E20FF31FBB
:100CC000ED54FD4F8083D7CDDF91CF911F910F91D0
:100CD000FF90EF90DF90CF90BF90AF909F907F906C
:100CE0006F905F904F900895CF92DF92EF92FF92B6
:100CF00088E54BDD882311F13FDD6B017C016091BC
:100D00005F0470E080E090E00E94E31C20914F04BB
:100D10003091500440915104509152040E94C31DDF
:100D20009B01AC01C701B6010E94B81B60933F0450
:100D300070934004809341049093420489E525DD3B
:100D4000882311F119DD6B017C016091600470E072
:100D500080E090E00E94E31C209153043091540401
:100D600040915504509156040E94C31D9B01AC0153
:100D7000C701B6010E94B81B6093430470934404FA
:100D800080934504909346048AE5FFDC8CE4FDDC07
:100D900086E4FF90EF90DF90CF90F7CCCF92DF9278
:100DA000EF92FF92CF93DF9382E7EFDC882339F055
:100DB000E3DC0E94B01C70933E0460933D0484E623
:100DC000E4DC882349F0D8DC60931E0270931F0294
:100DD000809320029093210286E7D7DC882349F094
:100DE000CBDC60931A0270931B0280931C029093D9
:100DF0001D02E1E6F2E08191882339F09091C00074
:100E000095FFFCCF8093C600F6CF60913D047091B2
:100E10003E044AE050E081EE94E00E94F218E3E7DD
:100E2000F2E08191882339F09091C00095FFFCCFCA
:100E30008093C600F6CF40911E0250911F02609130
:100E400020027091210222E030E081EE94E00E94C5
:100E5000A119E8E7F2E08191882339F09091C00070
:100E600095FFFCCF8093C600F6CF40911A025091B7
:100E70001B0260911C0270911D0222E030E081EEA5
:100E800094E00E94A1196FE772E081EE94E00E9465
:100E9000E51864E670E080E090E00E94551A8091C9
:100EA0003D0490913E04009709F064C061E0809198
:100EB0000E020E94731BC0E0D0E0BE01882777FDC0
:100EC0008095982F0E94E31C6B017C0120E030E0AC
:100ED00040EA52E460911E0270911F02809120024C
:100EE000909121020E94C31D9B01AC01C701B60174
:100EF0000E94441C87FF32C061E0809110020E9472
:100F0000731B20911A0230911B0240911C025091D8
:100F10001D0260E070E08AEF93E40E94481C0E948A
:100F2000B51CCB010E947A1A60E0809110020E94E9
:100F3000731B20911A0230911B0240911C025091A8
:100F40001D0260E070E08AEF93E40E94481C0E945A
:100F5000B51CCB010E947A1A2196AFCF64E670E0EF
:100F600080E090E0DF91CF91FF90EF90DF90CF9005
:100F70000C94551A019709F058C060E080910E0258
:100F80000E94731BC0E0D0E0BE01882777FD8095EA
:100F9000982F0E94E31C6B017C0120E030E040EAC6
:100FA00052E460911E0270911F0280912002909184
:100FB00021020E94C31D9B01AC01C701B6010E9422
:100FC000441C87FFCBCF61E0809110020E94731B0D
:100FD00020911A0230911B0240911C0250911D0277
:100FE00060E070E08AEF93E40E94481C0E94B51C08
:100FF000CB010E947A1A60E0809110020E94731B5C
:1010000020911A0230911B0240911C0250911D0246
:1010100060E070E08AEF93E40E94481C0E94B51CD7
:10102000CB010E947A1A2196AFCFDF91CF91FF902A
:10103000EF90DF90CF900895CF92DF92EF92FF92E2
:10104000CF93DF9382E7A1DB882339F095DB0E9401
:10105000B01C70933C0460933B0484E696DB8823C9
:1010600049F08ADB6093160270931702809318028E
:101070009093190286E789DB882349F07DDB609332
:101080001202709313028093140290931502E4E805
:10109000F2E08191882339F09091C00095FFFCCF58
:1010A0008093C600F6CF60913B0470913C044AE007
:1010B00050E081EE94E00E94F218E3E7F2E08191C3
:1010C000882339F09091C00095FFFCCF8093C60033
:1010D000F6CF40911602509117026091180270915C
:1010E000190222E030E081EE94E00E94A119E8E7C5
:1010F000F2E08191882339F09091C00095FFFCCFF8
:101100008093C600F6CF4091120250911302609175
:1011100014027091150222E030E081EE94E00E940A
:10112000A1196FE772E081EE94E00E94E51864E691
:1011300070E080E090E00E94551A80913B0490910D
:101140003C04009709F064C061E0809108020E94AD
:10115000731BC0E0D0E0BE01882777FD8095982FF3
:101160000E94E31C6B017C0120E030E040EA52E485
:1011700060911602709117028091180290911902E5
:101180000E94C31D9B01AC01C701B6010E94441C13
:1011900087FF32C061E080910A020E94731B209198
:1011A000120230911302409114025091150260E036
:1011B00070E08AEF93E40E94481C0E94B51CCB01AA
:1011C0000E947A1A60E080910A020E94731B2091AB
:1011D000120230911302409114025091150260E006
:1011E00070E08AEF93E40E94481C0E94B51CCB017A
:1011F0000E947A1A2196AFCF64E670E080E090E01A
:10120000DF91CF91FF90EF90DF90CF900C94551A23
:10121000019709F058C060E0809108020E94731B9A
:10122000C0E0D0E0BE01882777FD8095982F0E940E
:10123000E31C6B017C0120E030E040EA52E4609165
:1012400016027091170280911802909119020E9463
:10125000C31D9B01AC01C701B6010E94441C87FF5E
:10126000CBCF61E080910A020E94731B2091120291
:1012700030911302409114025091150260E070E029
:101280008AEF93E40E94481C0E94B51CCB010E9487
:101290007A1A60E080910A020E94731B2091120268
:1012A00030911302409114025091150260E070E0F9
:1012B0008AEF93E40E94481C0E94B51CCB010E9457
:1012C0007A1A2196AFCFDF91CF91FF90EF90DF9008
:1012D000CF9008954F925F926F927F928F929F92DC
:1012E000AF92BF92CF92DF92EF92FF920F931F9334
:1012F000CF93DF9300D01F92CDB7DEB74B015C01D7
:1013000029013A01C0902802D0902902E0902A02D7
:10131000F0902B02A7019601C701B6010E94C31DE0
:1013200069837A838B839C83A3019201C301B201F9
:101330000E94C31D9B01AC0169817A818B819C81D4
:101340000E94B81B0E942A1E20912C0230912D026F
:1013500040912E0250912F020E94B81B9B01AC01BC
:10136000C501B4010E94481C0E941C1C4B015C0179
:10137000A7019601C301B2010E94481C0E941C1CD7
:101380006B017C0120E030E044E353E4C501B4018B
:101390000E94C31D2AED3FE049E450E40E94481C2E
:1013A00020E030E040E05FE30E94C31D20E030E039
:1013B00040EF51E40E94481C2FE632E143E850E43C
:1013C0000E94481C20E030E040EA50E40E94C31D27
:1013D00020E030E040E855E40E94C31D20E030E00A
:1013E00040E251E40E94C31D4B015C0120E030E06B
:1013F00044E353E4C701B6010E94C31D2AED3FE058
:1014000049E450E40E94481C20E030E040E05FE303
:101410000E94C31D20E030E040EF51E40E94481CD0
:101420002FE632E143E850E40E94481C20E030E01F
:1014300040EA50E40E94C31D20E030E040E855E45B
:101440000E94C31D20E030E040E251E40E94C31D31
:101450006B017C010E94B01C2B013C01C501B40151
:101460000E94B01CAB01BC019301820183E694E0B1
:101470000E94011622E030E0B501A40181EE94E063
:101480000E94A21922E030E0B701A60181EE94E0AB
:101490000F900F900F900F90DF91CF911F910F91B0
:1014A000FF90EF90DF90CF90BF90AF909F908F9084
:1014B0007F906F905F904F900C94A2192F923F9263
:1014C0004F925F926F927F92AF92BF92CF92DF92D4
:1014D000EF92FF920F931F93CF93DF93CDB7DEB7B9
:1014E000A0970FB6F894DEBF0FBECDBF6D877E8785
:1014F0008F87988B298F3A8F4B8F5C8FC801B701EC
:1015000020E030E04AE754E40E94C31D698B7A8BE7
:101510008B8B9C8BEE24E394F12CB701882777FD0D
:101520008095982F0E94E31C69837A838B839C8328
:101530006091220270912302882777FD8095982F71
:101540000E94E31C9B01AC0169897A898B899C8983
:101550000E94481C9B01AC0169817A818B819C812E
:101560000E94441C18160CF4CEC020E030E04AE77C
:1015700054E4C601B5010E94C31D6D8B7E8B8F8B19
:10158000988F01E010E01701E1E02E223324B8012A
:10159000882777FD8095982F0E94E31C6D837E83BA
:1015A0008F8398876091240270912502882777FDA8
:1015B0008095982F0E94E31C69877A878B879C8788
:1015C0009B01AC016D897E898F89988D0E94481C92
:1015D0009B01AC016D817E818F8198850E94441CA6
:1015E00018160CF48CC06091220270912302882797
:1015F00077FD8095982F2114310499F10E94E31C06
:101600009B01AC0169817A818B819C810E94C31D01
:1016100020E030E04AE754E40E94481C9B01AC0102
:101620006D857E858F8598890E94B81B2B013C01B2
:1016300029853A854B855C856D817E818F81988572
:101640000E94C31D20E030E04AE754E40E94481C99
:101650009B01AC01698D7A8D8B8D9C8D0E94B81B8E
:1016600030C00E94E31C9B01AC0169817A818B81AF
:101670009C810E94C31D20E030E04AE754E40E94B0
:10168000481C9B01AC016D857E858F8598890E94E1
:10169000B81B2B013C0129853A854B855C856D8102
:1016A0007E818F8198850E94C31D20E030E04AE74B
:1016B00054E40E94481C9B01AC01C601B5010E9484
:1016C000B71B9B01AC0183E694E02D8F3E8F4F8FBB
:1016D00058A30E94AC132D8D3E8D4F8D58A1C30190
:1016E000B201F8DD80912602909127020E947A1AB9
:1016F00083E694E00E94C5130F5F1F4F48CF8FEF22
:10170000E81AF80A0ACFA0960FB6F894DEBF0FBE0B
:10171000CDBFDF91CF911F910F91FF90EF90DF90A0
:10172000CF90BF90AF907F906F905F904F903F9021
:101730002F9008954F925F926F927F928F929F9217
:10174000AF92BF92CF92DF92EF92FF920F931F93CF
:10175000CF93DF93CDB7DEB7A0970FB6F894DEBF77
:101760000FBECDBF40E050E060E070E483E694E05F
:101770000E947B1700E010E0980140E050E0BA01C1
:1017800083E694E00E948D17A12CB12C40EAC42E70
:1017900041E4D42E8601750120E030E0A901CA01A0
:1017A000B9018CDE80913F0490914004A0914104E6
:1017B000B091420489879A87AB87BC8720E030E0EC
:1017C000A901BC01CD010E94B81D18160CF06EC213
:1017D0004090430450904404609045047090460447
:1017E00020E030E0A901C301B2010E94B81D181623
:1017F0000CF05CC280914F0490915004A091510470
:10180000B09152048D8B9E8BAF8BB88F20E030E06F
:10181000A901BC01CD010E94B81D18160CF046C2EA
:101820008091530490915404A0915504B0915604B2
:1018300089839A83AB83BC8320E030E0A901BC019B
:10184000CD010E94B81D18160CF030C280912C02F8
:1018500090912D02A0912E02B0912F028D839E8334
:10186000AF83B8878090280290902902A0902A0226
:10187000B0902B02A5019401C501B4010E94C31DC3
:101880006B017C01A3019201C301B2010E94C31D3F
:101890009B01AC01C701B6010E94B81B0E942A1E21
:1018A0009B01AC016D817E818F8198850E94B81B60
:1018B0009B01AC0169857A858B859C850E94481CBB
:1018C0000E941C1C6D877E878F87988BA5019401D1
:1018D000C301B2010E94481C0E941C1C698B7A8BB8
:1018E0008B8B9C8B20E030E044E353E46D857E8558
:1018F0008F8598890E94C31D2AED3FE049E450E49A
:101900000E94481C20E030E040E05FE30E94C31DDD
:1019100020E030E040EF51E40E94481C2FE632E125
:1019200043E850E40E94481C20E030E040EA50E4E4
:101930000E94C31D20E030E040E855E40E94C31D32
:1019400020E030E040E850E40E94C31D20E030E891
:101950004BE355E40E94B71B6D877E878F87988B7A
:1019600020E030E044E353E469897A898B899C89DB
:101970000E94C31D2AED3FE049E450E40E94481C48
:1019800020E030E040E05FE30E94C31D20E030E053
:1019900040EF51E40E94481C2FE632E143E850E456
:1019A0000E94481C20E030E040EA50E40E94C31D41
:1019B00020E030E040E855E40E94C31D20E030E024
:1019C00040E850E40E94C31D20E030E84BE355E4BA
:1019D0000E94B71B698B7A8B8B8B9C8B29813A81F8
:1019E0004B815C81CA01B9010E94C31D9B01AC01FE
:1019F000C701B6010E94B81B0E942A1E9B01AC01C0
:101A00006D817E818F8198850E94B81B9B01AC01FE
:101A100069857A858B859C850E94481C0E941C1CC8
:101A20006B017C01A501940169817A818B819C8184
:101A30000E94481C0E941C1C4B015C0120E030E00D
:101A400044E353E4C701B6010E94C31D2AED3FE001
:101A500049E450E40E94481C20E030E040E05FE3AD
:101A60000E94C31D20E030E040EF51E40E94481C7A
:101A70002FE632E143E850E40E94481C20E030E0C9
:101A800040EA50E40E94C31D20E030E040E855E405
:101A90000E94C31D20E030E040E850E40E94C31DD6
:101AA00020E030E84BE355E40E94B71B6D837E8352
:101AB0008F83988720E030E044E353E4C501B4010C
:101AC0000E94C31D2AED3FE049E450E40E94481CF7
:101AD00020E030E040E05FE30E94C31D20E030E002
:101AE00040EF51E40E94481C2FE632E143E850E405
:101AF0000E94481C20E030E040EA50E40E94C31DF0
:101B000020E030E040E855E40E94C31D20E030E0D2
:101B100040E850E40E94C31D20E030E84BE355E468
:101B20000E94B71B698F7A8F8B8F9C8F69897A8906
:101B30008B899C890E94B01C4B015C016D857E8560
:101B40008F8598890E94B01C6B017C01698D7A8D0C
:101B50008B8D9C8D0E94B01C6D8F7E8F8F8F98A374
:101B60006D817E818F8198850E94B01CAB01BC0184
:101B70000D8D1E8D2F8D38A183E694E00E942017D5
:101B800022E030E04D895E896F89788D81EE94E0A6
:101B90000E94A119E6E9F2E08191882339F0909141
:101BA000C00095FFFCCF8093C600F6CF22E030E066
:101BB00049815A816B817C8181EE94E00E94A11958
:101BC000E6E9F2E08191882339F09091C00095FF19
:101BD000FCCF8093C600F6CF22E030E049855A85DD
:101BE0006B857C8581EE94E00E94A119E6E9F2E024
:101BF0008191882339F09091C00095FFFCCF8093AC
:101C0000C600F6CF22E030E0B301A20181EE94E0FD
:101C10000E94A21922E030E04D815E816F817885BB
:101C200081EE94E00E94A119E6E9F2E08191882317
:101C300039F09091C00095FFFCCF8093C600F6CF9D
:101C400022E030E0498D5A8D6B8D7C8D81EE94E0E1
:101C50000E94A119E6E9F2E08191882339F0909180
:101C6000C00095FFFCCF8093C600F6CF22E030E0A5
:101C70004D855E856F85788981EE94E00E94A1197B
:101C8000E6E9F2E08191882339F09091C00095FF58
:101C9000FCCF8093C600F6CF22E030E049895A8914
:101CA0006B897C8981EE94E00E94A21980913F04A7
:101CB00090914004A0914104B091420480934F045C
:101CC00090935004A0935104B09352048091430424
:101CD00090914404A0914504B0914604809353042C
:101CE00090935404A0935504B0935604A0960FB655
:101CF000F894DEBF0FBECDBFDF91CF911F910F9142
:101D0000FF90EF90DF90CF90BF90AF909F908F901B
:101D10007F906F905F904F900895AF92BF92CF9257
:101D2000DF92EF92FF920F931F93CF93DF9387E49D
:101D30000E94C5038823C9F00E94BC030E94B01C06
:101D40006230710508F0A6C080919E028111A2C088
:101D50000E947406DF91CF911F910F91FF90EF9039
:101D6000DF90CF90BF90AF90E5CC8DE60E94C50389
:101D7000882351F10E94BC030E94B01C61307105A0
:101D800021F06230710589F085C080919E02811139
:101D90000CC0DF91CF911F910F91FF90EF90DF90DA
:101DA000CF90BF90AF900C94CE0680919E0281118F
:101DB00071C0DF91CF911F910F91FF90EF90DF9055
:101DC000CF90BF90AF9038C98CE40E94C5038823A0
:101DD00011F060E006C086E40E94C503882331F05C
:101DE00061E0809136020E94731B54C082E50E941C
:101DF000C503882311F060E006C089E40E94C50392
:101E0000882321F061E080913402EDCF85E50E94C6
:101E1000C503882311F060E006C088E40E94C50372
:101E2000882349F061E0809132020E94731B61E0D7
:101E300080913002D8CF84E40E94C503882349F002
:101E400060E0809130020E94731B61E08091320259
:101E5000CACF83E50E94C503882319F00E946B0254
:101E600019C083E40E94C5038823A1F0C5E0D0E037
:101E70000E946B02A12CB12C50EAC52E51E4D52E44
:101E80008601750120E030E0A901CA01B90116DB25
:101E9000219771F7DF91CF911F910F91FF90EF90F4
:101EA000DF90CF90BF90AF900C94E1038091A3029C
:101EB0009091A402039714F40E941E048091A3023F
:101EC0009091A402892BB9F028DF8091A302909110
:101ED000A40201979093A4028093A3028091A70289
:101EE0009091A802019664E070E00E948F1E90938A
:101EF000A8028093A702089565E070E083E694E06D
:101F0000C5C12F923F924F925F926F927F928F92B4
:101F10009F92AF92BF92CF92DF92EF92FF920F9378
:101F20001F93CF93DF9300D01F92CDB7DEB7FC0194
:101F30001B018A01DB0112968D919C9113979C01E4
:101F4000442737FD4095542F29833A834B835C8384
:101F500014968D909C901597AA2497FCA094BA2C67
:101F60008D919C912081318142815381DC010E94BD
:101F7000F01E6B017C0164857585868597852981B6
:101F80003A814B815C810E94801EC60ED71EE81EDE
:101F9000F91E608D718D828D938DA50194010E9433
:101FA000801EC60ED71EE81EF91E8EE0F594E7943B
:101FB000D794C7948A95D1F7D801CD92DC92D101FC
:101FC0004D905C90662457FC6094762C64817581FA
:101FD00086819781A30192010E94801E6B017C0182
:101FE000608971898289938929813A814B815C81D9
:101FF0000E94801EC60ED71EE81EF91E648D758DC8
:10200000868D978DA50194010E94801EC60ED71E55
:10201000E81EF91E9EE0F594E794D794C7949A952C
:10202000D1F7D8011396DC92CE9212976085718514
:1020300082859385A30192010E94801E6B017C0121
:10204000D10112968D919C911397248935894689E7
:102050005789DC010E94F01EC60ED71EE81EF91E2D
:1020600060A171A182A193A1A50194010E94801E8B
:10207000C60ED71EE81EF91E2EE0F594E794D794FD
:10208000C7942A95D1F7F801D582C4820F900F909A
:102090000F900F90DF91CF911F910F91FF90EF90D4
:1020A000DF90CF90BF90AF909F908F907F906F9078
:1020B0005F904F903F902F9008958EBD00000DB41B
:1020C00007FEFDCF8EB50895CF92EF92FF920F934A
:1020D0001F93CF93DF9300D0CDB7DEB7FC0188E02C
:1020E00089838AE08A838CE08B83862F8270DE016D
:1020F000A80FB11D11968C9190E09687858763FBA0
:10210000882780F9808762FF04C020E038E040E043
:1021100058E0518340833383228312870187F486FA
:10212000E386C78680E090E79583848380E090EF24
:102130009783868381E00F900F900F90DF91CF916E
:102140001F910F91FF90EF90CF9008958CB58F7DE8
:102150008CBD8CB5837F8CBD8CB58C7F8CBD8DB5D3
:1021600081608DBD08951F93CF93DF93EC01162FEF
:1021700061E089850E943A1B61E08B850E943A1BD1
:1021800061E089850E94731B61E08B850E94731B4F
:1021900011110E94AA19CE01DF91CF911F91D6CFC4
:1021A000E62FE170F0E0EE0FFF1FE80FF91F8481CA
:1021B0009581442311F09F7D01C0906295838483B3
:1021C0000895CF93DF931F92CDB7DEB7872F2C985A
:1021D000698373DF6981862F70DF2C9A0F90DF91FE
:1021E000CF910895CF93DF93FC01C585D68521E07B
:1021F00030E00C2E02C0220F331F0A94E2F7E62FC4
:10220000E170F0E0EE0FFF1FE80FF91FA481B58128
:10221000AA27B07F215031094217530708F49A01C9
:102220006CE070E06C1B7D0BA90102C0440F551FD0
:102230006A95E2F7BA016A2B7B2B75836483DF9181
:10224000CF91BFCFFC018385948597FD03C05F9834
:1022500000005F9A08950F931F93CF93DF93EC01D3
:102260008A01AB0160E0BEDFA80161E0CE01BADF08
:102270008F85882331F0CE01DF91CF911F910F918F
:10228000E1CFDF91CF911F910F910895CF93DF930D
:10229000EC01DC01AA5BBF4F84E2E8E3F2E00190CD
:1022A0000D928A95E1F77983688340E051E060E020
:1022B00070E04A835B836C837D831E821F82188655
:1022C00019861A861B861C861D861DA61EA61FA69D
:1022D00018AA19AA1AAA1BAA1CAA1F861E8641E0C0
:1022E00050E060E070E0488B598B6A8B7B8B1C8AD6
:1022F0001D8A1E8A1F8A188E198E1A8E1B8E1C8E9E
:102300001D8E1E8E1F8E4FEF5FEFBA0148A359A39B
:102310006AA37BA31CA21DAA1EAA1FAA18AE19AEEF
:102320001AAE1BAE1CAEFE01FD964FEF5FE060E003
:1023300070E040835183628373833496408351837A
:102340006283738334961082C659DF4F48EE53E0A0
:1023500060E070E0488359836A837B83DF91CF918B
:102360000895CF92EF92FF920F931F93CF93DF9335
:10237000EC01CC24C39486E2E82EF12C0AE010E0B4
:1023800028E833E148E853E16EE081ED94E09CDE1B
:1023900040E060E081ED94E003DF40E061E081ED4A
:1023A00094E0FEDE61E081ED94E0DDDE61E08881B5
:1023B000DF91CF911F910F91FF90EF90CF900C94F0
:1023C0003A1B8FEF9FE0861B970BBC0181ED94E0D9
:1023D00042CFCF92DF92EF92FF920F931F93FC01B7
:1023E000C5A8D6A8E7A8F0AC4C155D056E057F051D
:1023F00074F0DC01DD96CD90DD90ED90FC90C4167C
:10240000D506E606F70634F080E090E005C081E0EE
:1024100090E002C082E090E041AD52AD63AD74AD9A
:10242000041715072607370714F484600CC0EF5B08
:10243000FF4F4081518162817381401751076207CC
:1024400073070CF488601F910F91FF90EF90DF905D
:10245000CF9008952F923F924F925F926F927F920A
:102460008F929F92AF92BF92CF92DF92EF92FF92A4
:102470000F931F93CF93DF93CDB7DEB764970FB65B
:10248000F894DEBF0FBECDBF9C8B8B8B7A836983A4
:102490005A8749873C832B831C870B87FA0100816D
:1024A000118122813381FB014081518162817381DD
:1024B00090DF1C01EB85FC85008111812281338135
:1024C000EB81FC8140815181628173818B899C8980
:1024D00080DF9E878D878B899C89CD96988B8F878F
:1024E000EB89FC89EF5BFF4FFA8BE98B8D859E852D
:1024F00082299329892B09F413C18D859E85822118
:102500009321892B09F00EC12114310411F08101AE
:1025100002C00D851E8503FF0DC0E981FA81408050
:10252000518062807380E989FA89C080D180E2801D
:10253000F3800EC002FF57C0E981FA8140805180CC
:1025400062807380EB89FC89C1ACD2ACE3ACF4ACA3
:10255000E985FA8580809180A280B380C301B201B1
:102560000E94E31C6D837E838F839887EB81FC81BF
:102570006081718182819381641975098609970947
:102580000E94E31C2B013C01C701B60168197909BF
:102590008A099B090E94E31C9B01AC01C301B201A3
:1025A0000E94C31D2B013C01EB85FC85608171817C
:1025B00082819381681979098A099B090E94E31C29
:1025C0009B01AC01C301B2010E94481C9B01AC01FC
:1025D0006D817E818F8198850E94B81B0E94B01CFE
:1025E0004B015C0167C001FF0DC0E985FA854080A1
:1025F000518062807380EF85F88980809180A2800D
:10260000B3800EC000FF56C0E985FA854080518036
:1026100062807380EB89FC8985A896A8A7A8B0ACD6
:10262000E981FA81C080D180E280F380C301B201E8
:102630000E94E31C6D837E838F839887EB85FC85E6
:102640006081718182819381641975098609970976
:102650000E94E31C2B013C01C501B4016C197D09EA
:102660008E099F090E94E31C9B01AC01C301B201CA
:102670000E94C31D2B013C01EB81FC8160817181B3
:10268000828193816C197D098E099F090E94E31C48
:102690009B01AC01C301B2010E94481C9B01AC012B
:1026A0006D817E818F8198850E94B81B0E94B01C2D
:1026B0006B017C0102151305C9F4E981FA8180825E
:1026C0009182A282B382E985FA85C082D182E282B8
:1026D000F382E981FA81408151816281738197019E
:1026E00086018B899C8975DE1C0100CFEB81FC8102
:1026F00080829182A282B382EB85FC85C082D182E6
:10270000E282F382EB81FC8140815181628173819D
:10271000970186018B899C895CDE9E878D87E6CE3A
:1027200081E001C080E064960FB6F894DEBF0FBE72
:10273000CDBFDF91CF911F910F91FF90EF90DF9070
:10274000CF90BF90AF909F908F907F906F905F9051
:102750004F903F902F900895CF93DF93EC018E859B
:102760009F85892B79F48CA181110CC084EF91E0B5
:10277000C1D681E090E09F878E8761E08881DF91FC
:10278000CF91B1C7DF91CF910895CF93DF93EC0143
:102790008E859F85892B51F084EF91E0ABD61F8603
:1027A0001E8660E08881DF91CF919DC7DF91CF9138
:1027B00008953F924F925F926F927F928F929F9275
:1027C000AF92BF92CF92DF92EF92FF920F931F933F
:1027D000CF93DF93CDB7DEB7A2970FB6F894DEBFE5
:1027E0000FBECDBF9AA389A34D875E876F87788B75
:1027F000098B1A8B2B8B3C8BFC0186819781A085E2
:10280000B1859A01AB01281B390B4A0B5B0B29835D
:102810003A834B835C8382859385A485B5854988FB
:102820005A886B887C88481A590A6A0A7B0A2D8361
:102830003E834F83588757FF0BC050954095309586
:1028400021953F4F4F4F5F4F2D833E834F835887D6
:10285000A9A1BAA112968D919D910D90BC91A02D28
:1028600089879A87AB87BC872D813E814F815885A8
:10287000BC01CD010E94801E6B017C01B0E2DB0E29
:10288000E11CF11C1EE0F594E794D794C7941A95C7
:10289000D1F75301420177FE07C0882499245401DF
:1028A00084189508A608B708A501940169857A855A
:1028B0008B859C850E94801E705E8F4F9F4FBEE06F
:1028C0009595879577956795BA95D1F7A9A1BAA1FE
:1028D0005C962D913D914D915C915F9729873A8748
:1028E0004B875C872D813E814F815885820E931ED8
:1028F000A41EB51E29853A854B855C85820E931EE4
:10290000A41EB51E5C968D929D92AD92BC925F976F
:10291000C616D706E806F90614F46B017C01698136
:102920007A818B819C81EEE0660F771F881F991F4B
:10293000EA95D1F7FEE0440C551C661C771CFA950D
:10294000D1F7A70196010E94C41E2D8B3E8B4F8BA1
:10295000588FC301B201A70196010E94C41E298F9E
:102960003A8F4B8F5C8F412CA0E25A2E612C712C38
:1029700020E030E240E050E029833A834B835C83DF
:102980001D821E821F821886A701960121503109DF
:10299000410951092D8F3E8F4F8F58A33324339413
:1029A0002D813E814F8158858D8D9E8DAF8DB8A133
:1029B000281739074A075B070CF0B3C0A9A1BAA1D1
:1029C00090960D911D912D913C9193970F3FBFEFE4
:1029D0001B072B073B0709F461C0E9A1FAA184A1F9
:1029E00081115CC0C980DA80EB80FC804EE0F594F8
:1029F000E794D794C7944A95D1F7530142015EE01A
:102A0000B594A794979487945A95D1F7B701A601E6
:102A1000F7FE07C044275527BA014C195D096E0916
:102A20007F0989859A85AB85BC85480F591F6A1F28
:102A30007B1FD501C401B7FE07C088279927DC0199
:102A400088199909AA09BB09840F951FA61FB71FEA
:102A5000081719072A073B070CF589A19AA195DEEB
:102A6000A9A1BAA194963C929497FD018681978181
:102A7000A085B1858C0D9D1DAE1DBF1D85A396A3A0
:102A8000A7A3B0A782859385A485B585880D991DD8
:102A9000AA1DBB1D81A792A7A3A7B4A7298D3A8D14
:102AA0004B8D5C8D420E531E641E751EC980DA80EC
:102AB000EB80FC808D899E89AF89B88DC80ED91EA8
:102AC000EA1EFB1ED301C2012EE0B595A79597958E
:102AD00087952A95D1F7E9A1FAA142855385480F38
:102AE000591FD701C6013EE0B595A79597958795E3
:102AF0003A95D1F766817781680F791FCF0161DC44
:102B00002D813E814F8158852F5F3F4F4F4F5F4F43
:102B10002D833E834F835887C982DA82EB82FC8201
:102B20003FCFA9A1BAA194968C919497811133C0FB
:102B300090968D919D910D90BC91A02D8F3FEFEFC0
:102B40009E07AE07BE0739F1E9A1FAA1448D558D64
:102B5000668D778D84179507A607B707E4F4CF0134
:102B600014DE81E0A9A1BAA194968C9394972D8547
:102B70003E854F85588995962D933D934D935C9353
:102B8000989729893A894B895C8999962D933D9329
:102B90004D935C939C972D853E854F855889A9A1BF
:102BA000BAA116962D933D934D935C93199729895D
:102BB0003A894B895C891A962D933D934D935C938A
:102BC0001D9749895A896D857E85CD01FADB85E09F
:102BD00090E0A2960FB6F894DEBF0FBECDBFDF9196
:102BE000CF911F910F91FF90EF90DF90CF90BF900A
:102BF000AF909F908F907F906F905F904F903F909D
:102C000079C44F925F926F927F92AF92BF92CF92B0
:102C1000DF92EF92FF920F931F93CF93DF93CDB785
:102C2000DEB768970FB6F894DEBF0FBECDBF5C016C
:102C30002A013B0168017901FC01EB5BFF4F8081B8
:102C4000882309F449C058874F831A8709871C864F
:102C50001B86AE014F5F5F4FBE01695F7F4FC501AD
:102C60008A5B9F4F4ED9F501E659FF4F80819181D4
:102C7000A281B3818D8B9E8BAF8BB88FCD80DE8090
:102C8000EE24D7FCE094FE2CC80ED91EEA1EFB1ED3
:102C9000A981BA812D893E894F89588D0E94F01EE5
:102CA000A70196010E94C41E29013A0198E0590E1D
:102CB000611C711CAB81BC812D893E894F89588D67
:102CC0000E94F01EA70196010E94C41E69017A01AC
:102CD000A8E0DA0EE11CF11CD50150968D919D9172
:102CE0000D90BC91A02D8D8B9E8BAF8BB88FA301C7
:102CF0009201BC01CD010E94801E2B013C01B0E27B
:102D00005B0E611C711C0EE0759467945794479498
:102D10000A95D1F7F50184899589A689B789480E66
:102D2000591E6A1E7B1EA70196016D897E898F89B7
:102D3000988DE6D76B017C01F0E2DF0EE11CF11CFF
:102D40008EE0F594E794D794C7948A95D1F7F5016E
:102D5000808D918DA28DB38DC80ED91EEA1EFB1EEB
:102D6000498A5A8A6B8A7C8ACD86DE86EF86F88A03
:102D700085A596A5A7A5B0A98F839887A987BA87A7
:102D800081A992A9A3A9B4A989839A83AB83BC839F
:102D90008E01035F1F4F9E012F5E3F4FAE014F5FBD
:102DA0005F4FBE01695F7F4FC50154DB882339F156
:102DB0004F81588569857A85F50185A596A5A7A5D2
:102DC000B0A909811A812B813C81481759076A07EC
:102DD0007B0749F481A992A9A3A9B4A908171907E7
:102DE0002A073B0711F0C501E4DC0D851E852F8500
:102DF000388949895A896B897C89C501DADCD50112
:102E00009D964D925D926D927C92D097F501C1AAEC
:102E1000D2AAE3AAF4AA68960FB6F894DEBF0FBE52
:102E2000CDBFDF91CF911F910F91FF90EF90DF9079
:102E3000CF90BF90AF907F906F905F904F9008952C
:102E40002F923F924F925F926F927F928F929F92BA
:102E5000AF92BF92CF92DF92EF92FF920F931F93A8
:102E6000CF93DF9300D01F92CDB7DEB73C0118019E
:102E70002901FC0186819781A085B185841795077A
:102E8000A607B70749F482859385A485B585801781
:102E90009107A207B30771F0C30149835A836B837B
:102EA0007C8373DC9201810149815A816B817C8131
:102EB000C301A7DEC30150DC95018401B701A6015F
:102EC000C3019FDE88EC90E00F900F900F900F9061
:102ED000DF91CF911F910F91FF90EF90DF90CF90F6
:102EE000BF90AF909F908F907F906F905F904F902A
:102EF0003F902F90FFC2CF93DF93EC01CB01BA013B
:102F000020E030E040E856E43ED62AD5688B798B45
:102F10008A8B9B8BDF91CF9108950F931F93FC01B8
:102F2000448B558B668B778B008F118F228F338F5D
:102F30001F910F9108951F920F920FB60F921124B7
:102F40000BB60F922F933F934F935F936F938F9393
:102F50009F93EF93FF936091C6002091620530919B
:102F60006305C90101968F779927409164055091B7
:102F700065058417950741F0F901EE51FB4F608319
:102F80009093630580936205FF91EF919F918F91DC
:102F90006F915F914F913F912F910F900BBE0F90CA
:102FA0000FBE0F901F9018959A01AB01211581EE6D
:102FB00038074105510539F182E08093C00060E097
:102FC00079E08DE390E0E0D62150310941095109C3
:102FD000CA01B90122E030E040E050E0D5D630939C
:102FE000C5002093C4008091C10080618093C1001E
:102FF0008091C10088608093C1008091C100806889
:103000008093C10008951092C00020E130E0E7CF26
:10301000209164053091650580916205909163056A
:103020008217930771F0F901EE51FB4F80812F5FFA
:103030003F4F2F773327309365052093640590E049
:1030400008958FEF9FEF0895809164059091650535
:10305000909363058093620508954F925F926F92FB
:103060007F928F929F92AF92BF92CF92DF92EF9218
:10307000FF920F931F93CF93DF93CDB7DEB7A09747
:103080000FB6F894DEBF0FBECDBF5C0141155105F0
:1030900061057105E9F420E030E040E350E060E0D4
:1030A00070E0A0960FB6F894DEBF0FBECDBFDF91E3
:1030B000CF911F910F91FF90EF90DF90CF90BF9035
:1030C000AF909F908F907F906F905F904F905AC07D
:1030D0008E010F5F1F4FC12CD12C76014801422E6B
:1030E000512C612C712C8FEFC81AD80AE80AF80A03
:1030F000CB01BA01A301920125D6CA01F80161935F
:103100008F01A901BC01411551056105710559F7F0
:10311000F1E0CF1AD108E108F108F401EC0DFD1D32
:1031200080818A3010F440E301C047E3480F5527FF
:1031300047FD5095652F752F20E030E0C50122D066
:1031400081E0C81AD108E108F108EFEFCE16DE06DB
:10315000EE06FE0611F7A0960FB6F894DEBF0FBE7E
:10316000CDBFDF91CF911F910F91FF90EF90DF9036
:10317000CF90BF90AF909F908F907F906F905F9017
:103180004F9008952115310539F48091C00085FFD5
:10319000FCCF4093C60008952A30310509F429C0B8
:1031A0005CCFCF93DF93EC0120E030E04DE050E0C6
:1031B00060E070E0E7DF20E030E04AE050E060E00F
:1031C00070E0CE01DF91CF91DDCFFB012191BF01F6
:1031D000222339F03091C00035FFFCCF2093C60088
:1031E000F4CFDFCF9A01AB01662757FD6095762FAC
:1031F000C9CFCF92DF92EF92FF92CF93DF93EC0192
:103200006A017B0177FF0FC020E030E04DE250E023
:1032100060E070E0B7DFF094E094D094C094C11CFB
:10322000D11CE11CF11C2AE0B701A601CE01DF91FF
:10323000CF91FF90EF90DF90CF900FCF8F929F9222
:10324000AF92BF92CF92DF92EF92FF921F93CF93F4
:10325000DF93EC016A017B01122F20E030E0A9012D
:10326000C701B60111D387FF0CC020E030E04DE26A
:1032700050E060E070E0CE0185DFF7FAF094F7F8F7
:10328000F094B12C60E070E080E09FE3B11639F07B
:1032900020E030E040E251E4FBD2B394F7CF9B0151
:1032A000AC01C701B60164D26B017C015ED34B0156
:1032B0005C0187D39B01AC01C701B60158D26B01F9
:1032C0007C012AE0B501A401CE01C7DE112361F023
:1032D000EBE9F2E08191882339F09091C00095FFED
:1032E000FCCF8093C600F6CF1123F9F020E030E048
:1032F00040E251E4C701B60146D46B017C0130D3F2
:103300004B01AA2497FCA094BA2CB501A401CE01CC
:1033100070DFC501B40157D39B01AC01C701B601F1
:1033200026D26B017C011150DFCFDF91CF911F912D
:10333000FF90EF90DF90CF90BF90AF909F908F90D5
:1033400008957CCFCF93DF93EC0178DFCE01DF913E
:10335000CF9127CFCF93CFB7F89480916605811195
:1033600023C0E4E2F3E08491EEEDF2E09491E82FE3
:10337000F0E0EE0FFF1FE15BFC4FA591B4918C9143
:10338000892319F461E085E3AED161E085E372D170
:103390008CB580618CBD8CB580648CBD61E084E3AC
:1033A00069D161E083E366D1809166058F5F809388
:1033B0006605CFBFCF9108951F920F920FB60F925F
:1033C00011242F933F938F939F93AF93BF9380913B
:1033D000680590916905A0916A05B0916B053091DF
:1033E000670523E0230F2D3720F40196A11DB11DA1
:1033F00005C026E8230F0296A11DB11D2093670585
:103400008093680590936905A0936A05B0936B0556
:1034100080916C0590916D05A0916E05B0916F053E
:103420000196A11DB11D80936C0590936D05A0932D
:103430006E05B0936F05BF91AF919F918F913F91B2
:103440002F910F900FBE0F901F9018952FB7F894E3
:10345000609168057091690580916A0590916B058E
:103460002FBF08953FB7F89480916C0590916D053A
:10347000A0916E05B0916F0526B5A89B05C02F3FA2
:1034800019F00196A11DB11D3FBF6627782F892F26
:103490009A2F620F711D811D911D42E0660F771FEB
:1034A000881F991F4A95D1F70895CF92DF92EF9226
:1034B000FF92CF93DF936B017C01D4DFEB01C1144A
:1034C000D104E104F10479F051D1CCDF6C1B7D0B08
:1034D000683E7340A0F381E0C81AD108E108F10802
:1034E000C851DC4FECCFDF91CF91FF90EF90DF9090
:1034F000CF9008958230910538F0880F991F880F7A
:10350000991F05970197F1F70895789484B5826023
:1035100084BD84B5816084BD85B5826085BD85B577
:10352000816085BDEEE6F0E0808181608083E1E826
:10353000F0E010828081826080838081816080835E
:10354000E0E8F0E0808181608083E1EBF0E0808161
:1035500084608083E0EBF0E0808181608083E1E93A
:10356000F0E0808182608083808181608083E0E9F7
:10357000F0E0808181608083E1EAF0E08081826018
:103580008083808181608083E0EAF0E080818160D7
:103590008083E1E2F1E080818260808380818160CC
:1035A0008083E0E2F1E0808181608083EAE7F0E0FF
:1035B000808184608083808182608083808181605B
:1035C00080838081806880831092C100089590E09C
:1035D000FC013197E231F10508F04BC0EE58FF4F86
:1035E000EFC3809180008F7703C0809180008F7D32
:1035F00080938000089580918000877FF9CF84B503
:103600008F7702C084B58F7D84BD08958091B0000E
:103610008F7703C08091B0008F7D8093B0000895B4
:10362000809190008F7707C0809190008F7D03C0BC
:1036300080919000877F8093900008958091A000F2
:103640008F7707C08091A0008F7D03C08091A0007C
:10365000877F8093A0000895809120018F7707C015
:10366000809120018F7D03C080912001877F80930E
:1036700020010895CF93DF9390E0FC01E755FD4FC3
:103680002491FC01E151FD4F8491882349F190E0A0
:10369000880F991FFC01E15BFC4FA591B4918B5CF5
:1036A0009C4FFC01C591D4919FB7611108C0F8945B
:1036B0008C91209582238C93888182230AC062306A
:1036C00051F4F8948C91322F309583238C93888118
:1036D000822B888304C0F8948C91822B8C939FBF9B
:1036E000DF91CF9108950F931F93CF93DF931F9294
:1036F000CDB7DEB7282F30E0F901ED59FD4F8491A9
:10370000F901E755FD4F1491F901E151FD4F049185
:103710000023C1F0882319F0698359DF6981E02F04
:10372000F0E0EE0FFF1FEB5CFC4FA591B4919FB74B
:10373000F8948C91611103C01095812301C0812BF5
:103740008C939FBF0F90DF91CF911F910F910895A0
:103750000895DBDEFDDF0E940502C0E0D0E00E949C
:10376000560F2097E1F30E940000F9CF08955058BA
:10377000BB27AA270ED0C2C1B3D130F0B8D120F0F8
:1037800031F49F3F11F41EF483C10EF4E095E7FB82
:1037900079C1E92FC4D180F3BA1762077307840790
:1037A000950718F071F49EF5DCC10EF4E0950B2E30
:1037B000BA2FA02D0B01B90190010C01CA01A00183
:1037C0001124FF27591B99F0593F50F4503E68F1DE
:1037D0001A16F040A22F232F342F4427585FF3CF1F
:1037E000469537952795A795F0405395C9F77EF4F0
:1037F0001F16BA0B620B730B840BBAF09150A1F039
:10380000FF0FBB1F661F771F881FC2F70EC0BA0FBE
:10381000621F731F841F48F4879577956795B79546
:10382000F7959E3F08F0B3CF9395880F08F099273E
:10383000EE0F979587950895DF93DD27B92FBF7712
:1038400040E85FE31616170648075B0710F4D92F08
:1038500093D19F938F937F936F933AD2E8E0F1E0F7
:103860001AD14CD12F913F914F915F9198D1DD2387
:1038700049F09058A2EA2AED3FE049EC5FE3D078A6
:103880005D2787DFDF913AC1D9D008F481E0089540
:103890000CD034C12CD140F023D130F021F45F3F63
:1038A00019F0F0C051115EC1F3C039D198F39923DA
:1038B000C9F35523B1F3951B550BBB27AA276217F4
:1038C0007307840738F09F5F5F4F220F331F441F39
:1038D000AA1FA9F333D00E2E3AF0E0E830D0915071
:1038E0005040E695001CCAF729D0FE2F27D0660F5E
:1038F000771F881FBB1F261737074807AB07B0E89D
:1039000009F0BB0B802DBF01FF2793585F4F2AF0B2
:103910009E3F510568F0B6C025C15F3FECF3983E6D
:10392000DCF3869577956795B795F7959F5FC9F70F
:10393000880F911D9695879597F90895E1E0660F98
:10394000771F881FBB1F621773078407BA0720F011
:10395000621B730B840BBA0BEE1F88F7E09508957A
:1039600004D06894B111FEC00895E1D088F09F574B
:1039700090F0B92F9927B751A0F0D1F0660F771FBB
:10398000881F991F1AF0BA95C9F712C0B13081F09B
:10399000E8D0B1E00895E5C0672F782F8827B85F99
:1039A00039F0B93FCCF3869577956795B395D9F7FC
:1039B0003EF490958095709561957F4F8F4F9F4F06
:1039C0000895E89409C097FB3EF490958095709512
:1039D00061957F4F8F4F9F4F9923A9F0F92F96E95B
:1039E000BB279395F695879577956795B795F111D0
:1039F000F8CFFAF4BB0F11F460FF1BC06F5F7F4F6D
:103A00008F4F9F4F16C0882311F096E911C077237E
:103A100021F09EE8872F762F05C0662371F096E887
:103A2000862F70E060E02AF09A95660F771F881F56
:103A3000DAF7880F9695879597F90895990F0008FA
:103A4000550FAA0BE0E8FEEF16161706E807F90770
:103A5000C0F012161306E407F50798F0621B730B0B
:103A6000840B950B39F40A2661F0232B242B252B8C
:103A700021F408950A2609F4A140A6958FEF811D2F
:103A8000811D089597F99F6780E870E060E00895D0
:103A90009FEF80EC0895DF93CF931F930F93FF92D6
:103AA000EF92DF927B018C01689405C0DA2EEF0162
:103AB00076D0FE01E894A5912591359145915591D7
:103AC000AEF3EF0166DEFE019701A801DA9479F703
:103AD000DF90EF90FF900F911F91CF91DF910895AC
:103AE00000240A94161617061806090608950024DD
:103AF0000A9412161306140605060895092E039457
:103B0000000C11F4882352F0BB0F40F4BF2B11F4CA
:103B100060FF04C06F5F7F4F8F4F9F4F089557FD29
:103B20009058440F551F59F05F3F71F04795880F2B
:103B300097FB991F61F09F3F79F0879508951216C2
:103B400013061406551FF2CF4695F1DF08C016166E
:103B500017061806991FF1CF86957105610508941F
:103B60000895E894BB2766277727CB0197F9089536
:103B700065DF08F48FEF08959B01AC0160E070E011
:103B800080E89FE385CE0BD0B9CFAADF28F0AFDF66
:103B900018F0952309F076CF7BCF1124E3CFBFDF58
:103BA000A0F3959FD1F3950F50E0551F629FF00150
:103BB000729FBB27F00DB11D639FAA27F00DB11DA9
:103BC000AA1F649F6627B00DA11D661F829F222732
:103BD000B00DA11D621F739FB00DA11D621F839FB9
:103BE000A00D611D221F749F3327A00D611D231F8F
:103BF000849F600D211D822F762F6A2F11249F57DD
:103C000050408AF0E1F088234AF0EE0FFF1FBB1FFF
:103C1000661F771F881F91505040A9F79E3F51059E
:103C200070F030CF9FCF5F3FECF3983EDCF386958A
:103C300077956795B795F795E7959F5FC1F7FE2B49
:103C4000880F911D9695879597F9089511F40EF4B4
:103C50001FCF41C06CDFD0F39923D9F3CEF39F5728
:103C6000550B87FF46D00024A0E640EA900180581B
:103C70005695979528F4805C660F771F881F20F073
:103C800026173707480730F4621B730B840B202973
:103C900031294A2BA69517940794202531254A27C8
:103CA00058F7660F771F881F20F026173707480739
:103CB00030F4620B730B840B200D311D411DA09558
:103CC00081F7B901842F9158880F969587950895AB
:103CD0009B01AC0158CF9F3F31F0915020F4879564
:103CE00077956795B795880F911D9695879597F964
:103CF000089591505040660F771F881FD2F708959E
:103D0000DB018F939F9362D0BF91AF91A29F800DF3
:103D1000911DA39F900DB29F900D1124089597FBC4
:103D2000072E16F4009406D077FD08D063D007FC68
:103D300005D03EF4909581959F4F089570956195BB
:103D40007F4F0895A1E21A2EAA1BBB1BFD010DC0D7
:103D5000AA1FBB1FEE1FFF1FA217B307E407F5073B
:103D600020F0A21BB30BE40BF50B661F771F881F17
:103D7000991F1A9469F760957095809590959B01AD
:103D8000AC01BD01CF010895052E97FB16F40094F8
:103D90000FD057FD05D0D6DF07FC02D046F408C08F
:103DA00050954095309521953F4F4F4F5F4F089567
:103DB00090958095709561957F4F8F4F9F4F089597
:103DC000EE0FFF1F0590F491E02D199427D0A59FC9
:103DD000900DB49F900DA49F800D911D1124089506
:103DE000B7FFF4CFF3DF821B930B08950790F69192
:103DF000E02D1994AA1BBB1B51E107C0AA1FBB1FD2
:103E0000A617B70710F0A61BB70B881F991F5A9566
:103E1000A9F780959095BC01CD010895A29FB001AE
:103E2000B39FC001A39F700D811D1124911DB29FEE
:103E3000700D811D1124911D08958F929F92AF9254
:103E4000BF92CF92DF92EF92FF920F931F93CF9387
:103E5000DF938B016115710521F0DB018C931196C5
:103E60009C93EC015E01BFEFAB1ABB0A7501C880E1
:103E70008C2D90E07BD2892B11F0E501F3CFEDE2A0
:103E8000CE1208C07E01F2E0EF0EF11CC980DD24E5
:103E9000D39409C02BE2C21205C07E0142E0E40EB9
:103EA000F11CC980D12CE701219743E050E061E784
:103EB00073E0CE0163D2892BB9F4239645E050E03C
:103EC0006CE673E0CE015AD2892B09F425960115D0
:103ED000110519F0D801CD93DC93D11000C160E039
:103EE00070E080E89FE704C143E050E069E673E0DA
:103EF000CE0144D2892B59F40115110509F4F4C0FF
:103F0000B2E0EB0EF11CF801F182E082EDC0F701A6
:103F100060E070E0CB01C0E0D0E07F01A0EDAA2E10
:103F2000AC0C29E02A1528F14D2D4260B42E2D2D20
:103F30002870D2FE04C0211124C0219622C0211174
:103F40002197A5E0B0E09B01AC0140DF660F771F31
:103F5000881F991F6A0D711D811D911D6839A9E97E
:103F60007A078A07A9E19A0760F0BD2DB660BB2EDB
:103F700008C02EEFA2120AC0D3FC50C04D2D4860DD
:103F8000B42E3196D701CC90DB2CC7CF2C2D2F7DB2
:103F9000253409F043C0A081AD3241F4BD2DB0619C
:103FA000DB2E7F0122E0E20EF11C0CC07F01AB3260
:103FB00031F04FEFE41AF40A21E030E006C0A2E04D
:103FC000EA0EF11CA18122E030E0A053AA3018F0E3
:103FD000E21AF30A23C0F70120E030E02038BCE009
:103FE0003B075CF4A901440F551F440F551F240FD4
:103FF000351F220F331F2A0F311DAF014F5F5F4F57
:104000007A01A081A053AA3010F4FA01E7CFD4FEC0
:1040100003C0319521953109C20FD31FD1FE09C0CC
:104020000115110531F0E1E0EE1AF108D801ED9229
:10403000FC92C7DC2D2D2370233019F04B015C015D
:1040400006C04B015C01B7FAB094B7F8B09420E019
:1040500030E0A901C501B40117DC882309F43CC094
:10406000D7FF06C0D195C195D10908E813E002C079
:1040700000EA13E06801B8E1CB1AD10890E2E92E1A
:10408000F12CCE15DF056CF0F801259135914591A5
:104090005491C501B40177DD4B015C01CE19DF09F4
:1040A000F0CF04501109F594E7940C151D0549F75C
:1040B0008A2D880F8B2D881F8F3F41F020E030E044
:1040C000A901C501B401E0DB811106C082E290E0E4
:1040D0009093710580937005C501B40109C060E03B
:1040E00070E080E89FEF04C060E070E080EC9FE744
:1040F000DF91CF911F910F91FF90EF90DF90CF90C4
:10410000BF90AF909F908F9008952F923F925F92B3
:104110006F927F928F929F92AF92BF92CF92DF92D7
:10412000EF92FF920F931F93CF93DF938B01EA01DE
:104130006115710521F0DB018C9311969C932097FA
:1041400039F09E01225031092332310508F0F8C0C0
:104150007C016701BFEFCB1ADB0A5601F7016080D3
:10416000862D90E003D1892B11F07601F2CFFDE28C
:104170006F120AC0570182E0A80EB11CD701119638
:104180006C90772473940BC0BBE26B1207C057018D
:10419000E2E0AE0EB11CD70111966C90712CCE01ED
:1041A0008F7E892B89F4B0E36B1222C0F5018081E8
:1041B0008F7D883541F56180F2E0AF0EB11C872D0F
:1041C0008260782EC0E1D0E0C830D105F1F04CF427
:1041D000C230D10511F5C12CD12CE12CB0E4FB2E5D
:1041E0002EC0CA30D10531F0C031D10519F115C04A
:1041F000209751F7CAE0D0E0ACECCA2EDC2CEC2CB6
:10420000ACE0FA2E1CC02097F9F6C8E0D0E0C12C33
:10421000D12CE12CF0E1FF2E12C060E070E080E0D4
:1042200090E89E01442737FD4095542F8BDD6901AE
:104230007A0105C0C12CD12CE12CE8E0FE2EF5015D
:1042400060E020E030E0A9014E01AA2497FCA09490
:10425000BA2C1F0170ED572E560CA9E0A51570F46D
:104260008FEB860D8A3118F499EC592E06C08FE930
:10427000860D8A3128F589EA582E560C852D90E056
:104280008C179D07ECF467FD17C0C216D306E40631
:10429000F50678F0C501B40133DD9B01AC01250DB5
:1042A000311D411D511D213031054105B0E85B072D
:1042B00010F06FEF01C061E03196D1016C90C9CF71
:1042C000872D81700115110571F0662329F0319752
:1042D000D801ED93FC9307C071FE19C03297D80145
:1042E000ED93FC9314C067FF12C0882329F020E0EF
:1042F00030E040E050E804C02FEF3FEF4FEF5FE7C2
:1043000082E290E0909371058093700516C0882337
:1043100041F050954095309521953F4F4F4F5F4F5D
:104320000CC057FF0AC082E290E090937105809321
:1043300070052FEF3FEF4FEF5FE7B901CA0104C0EF
:1043400060E070E080E090E0DF91CF911F910F91ED
:10435000FF90EF90DF90CF90BF90AF909F908F90A5
:104360007F906F905F903F902F900895911143C080
:10437000803219F089508550D0F70895FB01DC0197
:104380004150504088F08D9181341CF08B350CF4F5
:10439000805E659161341CF06B350CF4605E861BA9
:1043A000611171F3990B0895881BFCCFFC01819179
:1043B000861721F08823D9F7992708953197CF01DF
:1043C0000895FB0151915523A9F0BF01DC014D91E6
:1043D00045174111E1F759F4CD010190002049F052
:1043E0004D9140154111C9F3FB014111EFCF81E01F
:1043F00090E001970895992788270895F894FFCFB2
:1044000000007205800019001A001B00160017003A
:1044100018000000803F0000F0410000803F0000D5
:10442000803FF401F40164000000C8430000204113
:10443000090008000700060000400000000000001E
:10444000000000000000000000400000000000002C
:104450000000000000000000004000004D3131303D
:10446000006D6F746F72313A2064697265637469AC
:104470006F6E002020643A006D6D2020763A006D4A
:104480006D2F73006D6F746F72323A2064697265BC
:0E4490006374696F6E0020202020002E000053
:020000023000CC
:10E000000D9489F10D94B2F10D94B2F10D94B2F129
:10E010000D94B2F10D94B2F10D94B2F10D94B2F1F0
:10E020000D94B2F10D94B2F10D94B2F10D94B2F1E0
:10E030000D94B2F10D94B2F10D94B2F10D94B2F1D0
:10E040000D94B2F10D94B2F10D94B2F10D94B2F1C0
:10E050000D94B2F10D94B2F10D94B2F10D94B2F1B0
:10E060000D94B2F10D94B2F10D94B2F10D94B2F1A0
:10E070000D94B2F10D94B2F10D94B2F10D94B2F190
:10E080000D94B2F10D94B2F10D94B2F10D94B2F180
:10E090000D94B2F10D94B2F10D94B2F10D94B2F170
:10E0A0000D94B2F10D94B2F10D94B2F10D94B2F160
:10E0B0000D94B2F10D94B2F10D94B2F10D94B2F150
:10E0C0000D94B2F10D94B2F10D94B2F10D94B2F140
:10E0D0000D94B2F10D94B2F10D94B2F10D94B2F130
:10E0E0000D94B2F141546D656761323536300041AF
:10E0F000726475696E6F206578706C6F72657220DE
:10E1000073746B3530305632206279204D4C530099
:10E11000426F6F746C6F616465723E004875683F52
:10E1200000436F6D70696C6564206F6E203D200048
:10E130004350552054797065202020203D20005FF9
:10E140005F4156525F415243485F5F3D2000415658
:10E1500052204C696243205665723D20004743437C
:10E160002056657273696F6E203D20004350552024
:10E1700049442020202020203D20004C6F7720663D
:10E18000757365202020203D20004869676820665F
:10E190007573652020203D200045787420667573D6
:10E1A00065202020203D20004C6F636B2066757336
:10E1B000652020203D20004D617220203720323024
:10E1C000313300312E362E3800342E332E350056A2
:10E1D00023202020414444522020206F7020636F70
:10E1E00064652020202020696E73747275637469E1
:10E1F0006F6E2061646472202020496E74657272B3
:10E20000757074006E6F20766563746F7200726A49
:10E210006D702020006A6D70200057686174207056
:10E220006F72743A00506F7274206E6F7420737541
:10E2300070706F72746564004D7573742062652030
:10E2400061206C6574746572002000577269747483
:10E25000696E672045450052656164696E672045B7
:10E26000450045452065727220636E743D00504F35
:10E27000525400303D5A65726F2061646472003FF1
:10E280003D43505520737461747300403D454550C3
:10E29000524F4D207465737400423D426C696E6B41
:10E2A000204C454400453D44756D70204545505215
:10E2B0004F4D00463D44756D7020464C415348001B
:10E2C000483D48656C70004C3D4C69737420492F83
:10E2D0004F20506F72747300513D51756974005234
:10E2E0003D44756D702052414D00563D73686F7707
:10E2F00020696E7465727275707420566563746FF0
:10E30000727300593D506F727420626C696E6B00BD
:10E310002A0011241FBECFEFD1E2DEBFCDBF01E046
:10E320000CBF12E0A0E0B2E0EEE1FDEF03E00BBFB6
:10E3300002C007900D92A030B107D9F712E0A0E01B
:10E34000B2E001C01D92AE30B107E1F70F9460F367
:10E350000D948DFE01E20EBF0FEF0DBF11241FBE05
:10E360000D9460F30D9400F020E030E040ED57E0B4
:10E3700005C0FA013197F1F72F5F3F4F2817390792
:10E38000C0F308959C01260F311DC901A0E0B0E043
:10E390002F5F3F4FABBFFC018791882361F08093D3
:10E3A000C6008091C00086FFFCCF8091C0008064D1
:10E3B0008093C000EACF08958DE08093C6008091DD
:10E3C000C00086FFFCCF8091C00080648093C000B5
:10E3D0008AE08093C6008091C00086FFFCCF8091C8
:10E3E000C00080648093C00008950F94C2F10F9420
:10E3F000DCF10895FC019081992359F09093C600B7
:10E400008091C00086FFFCCF8091C0008064809323
:10E41000C0003196992379F70895282F982F929567
:10E420009F70892F805D8A3308F0895F8093C600D2
:10E430008091C00086FFFCCF8091C00080648093F3
:10E44000C000822F8F70982F905D9A3308F0995FEB
:10E450009093C6008091C00086FFFCCF8091C000E1
:10E4600080648093C00008959C01FB01853691056E
:10E470001CF46330710594F0C90164E670E00F94F8
:10E480002EFE605D7F4F6093C6008091C00086FFC6
:10E49000FCCF8091C00080648093C0002B30310598
:10E4A00014F43297B4F0C90164E670E00F942EFEC4
:10E4B0006AE070E00F942EFE605D7F4F6093C600AF
:10E4C0008091C00086FFFCCF8091C0008064809363
:10E4D000C000C9016AE070E00F942EFEC0968093E0
:10E4E000C6008091C00086FFFCCF8091C000806490
:10E4F0008093C00008951F93182F8EE692EE60E07F
:10E500000F94C2F11093C6008091C00086FFFCCF2B
:10E510008091C00080648093C0000F94DCF11F9153
:10E5200008952F923F924F925F926F927F928F92B7
:10E530009F92AF92BF92CF92DF92EF92FF920F9392
:10E540001F93DF93CF93CDB7DEB762970FB6F894E2
:10E55000DEBF0FBECDBF382E622ECA01DB015C01CB
:10E560006D01772420E2222E2E010894411C511CBB
:10E570008BC081E0A81680E0B80681E0C80680E084
:10E58000D80628F0C601AA27BB270F940DF2BB2797
:10E59000AD2D9C2D8B2D0F940DF28A2D0F940DF225
:10E5A0002092C6008091C00086FFFCCF8091C00001
:10E5B00080648093C0009DE29093C6008091C0006B
:10E5C00086FFFCCF8091C00080648093C0002092C1
:10E5D000C6008091C00086FFFCCF8091C00080649F
:10E5E0008093C00019828601750188249924A1E0D6
:10E5F0003A1651F03A1620F0B2E03B1661F409C029
:10E600000BBFF701779007C0C7010F9477FE782EF4
:10E6100002C0F7017080872D0F940DF22092C60082
:10E620008091C00086FFFCCF8091C0008064809301
:10E63000C000872D8052F401EF70F0708F3520F408
:10E64000E40DF51D708204C0E40DF51D8EE280839B
:10E650000894E11CF11C011D111D0894811C911CE2
:10E6600090E18916910409F0C2CF80E190E0A0E02A
:10E67000B0E0A80EB91ECA1EDB1E198AC2010F9493
:10E68000FAF10F94DCF16A94662009F072CF629679
:10E690000FB6F894DEBF0FBECDBFCF91DF911F91B3
:10E6A0000F91FF90EF90DF90CF90BF90AF909F9031
:10E6B0008F907F906F905F904F903F902F90089534
:10E6C0002F923F924F925F926F927F928F929F9282
:10E6D000AF92BF92CF92DF92EF92FF920F931F9370
:10E6E000DF93CF93CDB7DEB7CD53D1400FB6F894BB
:10E6F000DEBF0FBECDBF01E20EBF0FEF0DBF94B75F
:10E70000F894A89514BE80916000886180936000A1
:10E7100010926000789493FF05C0E0910002F091A0
:10E7200001021995279A2F9A8091C00082608093E8
:10E73000C00080E18093C40088E18093C1000000A4
:10E74000EE24FF24870144E0A42EB12CCC24DD2448
:10E7500024C0C5010197F1F70894E11CF11C011DCB
:10E76000111D21E2E2162EE4F20620E0020720E06D
:10E77000120718F031E0C32ED12CC801B70127ECE5
:10E780003BE140E050E00F9441FE611571058105C9
:10E79000910519F485B1805885B98091C00087FD35
:10E7A00003C0C114D104A9F2A6014F5F5F4FC25E3E
:10E7B000DE4F59834883CE51D140C25EDE4F8881FF
:10E7C0009981CE51D140019711F00D9410FEC05D9A
:10E7D000DE4F19821882C053D14060E0C15DDE4F28
:10E7E0001882CF52D14088249924C35DDE4F19820C
:10E7F0001882CD52D140C05EDE4F188219821A8233
:10E800001B82C052D140CE5CDE4F188219821A8220
:10E810001B82C253D140EE24FF2487010BBFF701B6
:10E8200007911691C45CDE4F19830883CC53D14005
:10E830000D940BFEC25EDE4F28813981CE51D1404E
:10E840002130310509F52091C600C25EDE4F1982E4
:10E850001882CE51D14022C02F5F3F4F4F4F5F4FA4
:10E86000213082E138078AE7480780E0580780F0C6
:10E87000C45CDE4FE881F981CC53D140EF5FFF4F9C
:10E8800019F0EE27FF27099420E030E040E050E047
:10E890008091C00087FFE0CF2091C600C35DDE4FAE
:10E8A00048815981CD52D1404F5F5F4FC35DDE4FEC
:10E8B00059834883CD52D140213209F063C64A3092
:10E8C000510508F05FC60894811C911C53E0851621
:10E8D000910409F059C600E010E018C081E280936D
:10E8E000C6008091C00086FFFCCF8091C00080648C
:10E8F0008093C0002F5F3F4F2931310579F70F9486
:10E90000DCF10F5F1F4F0530110519F020E030E0FA
:10E91000E5CF10920A0210920B0210920C02109294
:10E920000D02109206021092070210920802109235
:10E930000902109202021092030210920402109235
:10E9400005028FEE90EE60E00F94F5F180E191EE1C
:10E9500060E00F94C2F18091C00087FFFCCF9091DE
:10E96000C600903608F09F759032B8F09093C600BC
:10E970008091C00086FFFCCF8091C00080648093AE
:10E98000C000A0E2A093C6008091C00086FFFCCF2B
:10E990008091C00080648093C000983409F4D7C18E
:10E9A0009934B8F4923409F459C1933458F490333B
:10E9B00019F1903308F4E3C59F33A1F1903409F0C5
:10E9C000DEC5BDC0953409F470C1963409F0D7C5D1
:10E9D00098C1923509F42BC2933538F49C3409F46C
:10E9E000F5C1913509F0CBC518C2963509F445C279
:10E9F000993509F0C4C567C483E792EE62E00F94CD
:10EA0000F5F110920602109207021092080210927D
:10EA1000090210920A0210920B0210920C0210923C
:10EA20000D0213C18FE792EE62E00F94F5F18FEEC5
:10EA300090EE60E00F94F5F181E291EE60E00F94CA
:10EA4000C2F187EB91EE60E00F94F5F180E391EE77
:10EA500060E00F94C2F184EE90EE60E00F94F5F167
:10EA60008FE391EE60E00F94C2F186E090E061E008
:10EA700070E00F9434F20F94DCF18DE591EE60E0DC
:10EA80000F94C2F189EC91EE60E00F94F5F18EE401
:10EA900091EE60E00F94C2F183EC91EE60E00F9490
:10EAA000F5F18CE691EE60E00F94C2F18EE10F94E7
:10EAB0000DF288E90F940DF281E00F940DF20F949E
:10EAC000DCF18BE791EE60E00F94C2F119E0E0E039
:10EAD000F0E010935700E4918E2F0F940DF20F94F5
:10EAE000DCF18AE891EE60E00F94C2F1E3E0F0E03F
:10EAF00010935700E4918E2F0F940DF20F94DCF1D8
:10EB000089E991EE60E00F94C2F1E2E0F0E0109349
:10EB10005700E4918E2F0F940DF20F94DCF188EAE8
:10EB200091EE60E00F94C2F1E1E0F0E01093570045
:10EB30001491812F0F940DF20F94DCF107CF8BE825
:10EB400092EE62E00F94F5F18BE492EE60E00F94A8
:10EB5000F5F10F94DCF100E010E019C0C8016F2D51
:10EB60000F947FFEFF2031F489E492EE60E00F9471
:10EB7000C2F10BC0F092C6008091C00086FFFCCFAE
:10EB80008091C00080648093C0000F5F1F4FC80158
:10EB900081519F41A0E0B0E0ABBFFC01F790BAE229
:10EBA000FB1621F0E2E000301E07C1F60F94DCF105
:10EBB0000F94DCF187E592EE60E00F94F5F10F948D
:10EBC000DCF1CC24DD2400E010E01EC0C8010F946D
:10EBD00077FEF82E882331F489E492EE60E00F94FA
:10EBE000C2F10BC08093C6008091C00086FFFCCFAD
:10EBF0008091C00080648093C000FE1419F00894D6
:10EC0000C11CD11C0F5F1F4FC80181519F41A0E063
:10EC1000B0E0ABBFFC01E790FAE2EF1621F022E092
:10EC20000030120799F60F94DCF10F94DCF182E6C4
:10EC300092EE60E00F94C2F1C60161E070E00F94C3
:10EC400034F20F94DCF10F94DCF110920202109276
:10EC50000302109204021092050278CE89E992EE26
:10EC600062E00F94F5F1279A2F9A16C02F9880E052
:10EC700090E0E0EDF7E03197F1F7019684369105E9
:10EC8000C1F72F9A80E090E0E0EDF7E03197F1F7DF
:10EC9000019684369105C1F78091C00087FFE6CFC9
:10ECA0008091C00087FFFCCF64C485EA92EE62E0E9
:10ECB0000F94F5F140910202509103026091040219
:10ECC0007091050281E020E10F9491F2809102029F
:10ECD00090910302A0910402B091050280509F4FD1
:10ECE000AF4FBF4F8093020290930302A0930402A0
:10ECF000B093050280509041A040B04008F426CE69
:10ED0000A4CF83EB92EE62E00F94F5F140910602FE
:10ED100050910702609108027091090280E020E1A1
:10ED20000F9491F28091060290910702A09108023F
:10ED3000B091090280509F4FAF4FBF4F80930602A2
:10ED400090930702A0930802B0930902FFCD80ECD4
:10ED500092EE62E00F94F5F183E792EE60E00F949B
:10ED6000F5F18FE792EE60E00F94F5F18BE892EE0B
:10ED700060E00F94F5F189E992EE60E00F94F5F10F
:10ED800085EA92EE60E00F94F5F183EB92EE60E09D
:10ED90000F94F5F180EC92EE60E00F94F5F187ECC2
:10EDA00092EE60E00F94F5F188ED92EE60E00F9442
:10EDB000F5F18FED92EE60E00F94F5F18AEE92EEB0
:10EDC00060E00F94F5F183E093EEBDCD87EC92EE19
:10EDD00062E00F94F5F181E40F947BF282E40F94EA
:10EDE0007BF283E40F947BF284E40F947BF285E45E
:10EDF0000F947BF286E40F947BF287E40F947BF20E
:10EE000088E40F947BF28AE40F947BF28BE40F94F6
:10EE10007BF28CE40F947BF299CD88ED92EE62E068
:10EE20000F94F5F1772473948824992409C48FED05
:10EE300092EE62E00F94F5F140910A0250910B02BC
:10EE400060910C0270910D0282E020E10F9491F22A
:10EE500080910A0290910B02A0910C02B0910D02D8
:10EE600080509F4FAF4FBF4F80930A0290930B0289
:10EE7000A0930C02B0930D0269CD8AEE92EE62E08F
:10EE80000F94F5F184EE90EE60E00F94F5F18FECC5
:10EE900091EE60E00F94F5F1662477244301CC5D98
:10EEA000DE4F19821882C452D140D401C301B695F5
:10EEB000A79597958795CA5DDE4F88839983AA8326
:10EEC000BB83C652D140CC5DDE4FA881B981C4520C
:10EED000D1401196CC5DDE4FB983A883C452D14096
:10EEE000CD0162E070E00F9434F2B0E2B093C6005E
:10EEF0008091C00086FFFCCF8091C0008064809329
:10EF0000C000EDE2E093C6008091C00086FFFCCF18
:10EF10008091C00080648093C000F0E2F093C6004E
:10EF20008091C00086FFFCCF8091C00080648093F8
:10EF3000C000CA5DDE4FE880F9800A811B81C6529D
:10EF4000D140BB27A12F902F8F2D0F940DF2CA5DBA
:10EF5000DE4F8881C652D1400F940DF2B0E2FB2EF5
:10EF6000F092C6008091C00086FFFCCF8091C00067
:10EF700080648093C0000DE30093C6008091C000C0
:10EF800086FFFCCF8091C00080648093C00010E2B7
:10EF90001093C6008091C00086FFFCCF8091C00016
:10EFA00080648093C0008BBEF3012791C65DDE4F65
:10EFB0002883CA52D140A22EBB24CC24DD2408943D
:10EFC000611C711C811C911C8BBEF3018791282E42
:10EFD0003324442455240894611C711C811C911C09
:10EFE0008BBEF3013791C55DDE4F3883CB52D140E4
:10EFF0000894611C711C811C911C8BBEF30147910C
:10F00000C45DDE4F4883CC52D140ADEFEA2EAFEF66
:10F01000FA2EAFEF0A2FAFEF1A2F6E0C7F1C801E57
:10F02000911E142D032DF22CEE24EA0CFB1C0C1D5A
:10F030001D1D0F940DF220E22093C6008091C000A8
:10F0400086FFFCCF8091C00080648093C000C65DC5
:10F05000DE4F8881CA52D1400F940DF230E23093D6
:10F06000C6008091C00086FFFCCF8091C000806404
:10F070008093C000C45DDE4F8881CC52D1400F9494
:10F080000DF240E24093C6008091C00086FFFCCFA5
:10F090008091C00080648093C000C55DDE4F888190
:10F0A000CB52D1400F940DF250E25093C6008091A4
:10F0B000C00086FFFCCF8091C00080648093C000B8
:10F0C0008FEFE8168FEFF80680E0080780E018075A
:10F0D00031F484E092EE60E00F94C2F1DFC0D80119
:10F0E000C7018070907CA070B0708050904CA040A0
:10F0F000B040D1F52FEF3FE340E050E0E222F322B1
:10F1000004231523CA5DDE4FA880B980CA80DB8046
:10F11000C652D140AE0CBF1CC01ED11EAA0CBB1CD7
:10F12000CC1CDD1C8EE092EE60E00F94C2F1BB2798
:10F13000A12F902F8F2D0F940DF28E2D0F940DF285
:10F1400030E23093C6008091C00086FFFCCF8091F2
:10F15000C00080648093C0004EE34093C60080915D
:10F16000C00086FFFCCF87C08EE09EEFA0E0B0E03D
:10F17000E822F9220A231B239CE0E91694E9F90608
:10F1800090E0090790E0190709F088C0C45DDE4FE0
:10F19000A881CC52D140EA2EFF2400E010E0102FCD
:10F1A0000F2DFE2CEE24C55DDE4FB881CB52D14031
:10F1B000EB0EF11C011D111DD601C501817090706F
:10F1C000A070B070DC0199278827E80EF91E0A1F8D
:10F1D0001B1F20EF30E040E050E0A222B322C42207
:10F1E000D52241E1AA0CBB1CCC1CDD1C4A95D1F7F1
:10F1F000EA0CFB1C0C1D1D1D81E090E0A0E0B0E0BE
:10F20000282239224A225B2235E1220C331C441C7D
:10F21000551C3A95D1F7E20CF31C041D151D57013E
:10F220006801AA0CBB1CCC1CDD1C85E192EE60E0E1
:10F230000F94C2F1C801AA27BB270F940DF2BB2778
:10F24000A12F902F8F2D0F940DF28E2D0F940DF274
:10F2500090E29093C6008091C00086FFFCCF809121
:10F26000C00080648093C000AEE3A093C60080918C
:10F27000C00086FFFCCF8091C00080648093C000F6
:10F28000C601AA27BB270F940DF2BB27AD2D9C2DDD
:10F290008B2D0F940DF28A2D0F940DF20F94DCF14B
:10F2A000CC5DDE4FE881F981C452D140F99709F471
:10F2B0004DCBF4E0EF2EF12C012D112D6E0C7F1CA7
:10F2C000801E911EF2CD83E093EE62E00F94F5F183
:10F2D0008AE192EE60E00F94C2F18091C00087FF56
:10F2E000FCCF1091C6001F751093C6008091C0001E
:10F2F00086FFFCCF8091C00080648093C0000F9493
:10F30000DCF1812F81548A3108F036C1163409F4BA
:10F3100095C0173490F4133409F44EC0143430F40B
:10F320001134F1F0123409F01DC130C0143409F465
:10F3300059C0153409F016C16BC01A3409F4C4C0A1
:10F340001B3438F4173409F48FC0183409F00AC19B
:10F35000A1C01B3409F4D2C01C3409F003C1E8C0B9
:10F360008FEF81B90DC082B1809582B980E090E0C5
:10F37000E0EDF7E03197F1F70196883C9105C1F790
:10F380008091C00087FFEFCF12B8EFC08FEF84B934
:10F390000DC085B1809585B980E090E0E0EDF7E0A3
:10F3A0003197F1F70196883C9105C1F78091C00033
:10F3B00087FFEFCF15B8D9C08FEF87B90DC088B1DF
:10F3C000809588B980E090E0E0EDF7E03197F1F7C3
:10F3D0000196883C9105C1F78091C00087FFEFCF6F
:10F3E00018B8C3C08FEF8AB90DC08BB180958BB9A7
:10F3F00080E090E0E0EDF7E03197F1F70196883C8E
:10F400009105C1F78091C00087FFEFCF1BB8ADC059
:10F410008FEF8DB90DC08EB180958EB980E090E0F0
:10F42000E0EDF7E03197F1F70196883C9105C1F7DF
:10F430008091C00087FFEFCF1EB897C08FEF80BBD1
:10F440000DC081B3809581BB80E090E0E0EDF7E0F6
:10F450003197F1F70196883C9105C1F78091C00082
:10F4600087FFEFCF11BA81C08FEF83BB0DC084B38C
:10F47000809584BB80E090E0E0EDF7E03197F1F714
:10F480000196883C9105C1F78091C00087FFEFCFBE
:10F4900014BA6BC08FEF809301010FC080910201FD
:10F4A00080958093020180E090E0E0EDF7E03197F5
:10F4B000F1F70196883C9105C1F78091C00087FF64
:10F4C000EDCF1092020151C08FEF809304010FC065
:10F4D0008091050180958093050180E090E0E0ED4A
:10F4E000F7E03197F1F70196883C9105C1F78091DB
:10F4F000C00087FFEDCF1092050137C08FEF8093DA
:10F5000007010FC08091080180958093080180E079
:10F5100090E0E0EDF7E03197F1F70196883C910536
:10F52000C1F78091C00087FFEDCF109208011DC088
:10F530008FEF80930A010FC080910B01809580931B
:10F540000B0180E090E0E0EDF7E03197F1F70196F4
:10F55000883C9105C1F78091C00087FFEDCF1092E4
:10F560000B0103C085E292EEEEC98091C00087FFD7
:10F57000FCCF8091C600EAC988E392EEE4C98CE131
:10F5800091EEE1C988249924933011F1943028F444
:10F59000913089F09230B8F408C0953061F195301F
:10F5A000F0F0963009F048C043C02B3109F042C951
:10F5B00091E06BE13FC96227C15DDE4F2883CF52E6
:10F5C000D14092E037C9B22FA0E0622793E032C960
:10F5D000822F90E0A82BB92B622794E02BC92E3004
:10F5E00009F039C3622795E0C05DDE4F19821882A9
:10F5F000C053D1401FC9E1E0F0E0EC0FFD1FC05D3A
:10F60000DE4F08811981C053D140E00FF11F2083E4
:10F610000F5F1F4FC05DDE4F19830883C053D14079
:10F6200062270A171B0709F005C9D80196E002C92D
:10F63000261709F010C303C0973009F0FBC87724E0
