:020000040800F2
:1000000098070020D9010008CB19000855190008ED
:10001000C91900084D090008911E000800000000E1
:10002000000000000000000000000000CF190008E0
:10003000D909000800000000CD190008D1190008F6
:10004000F3010008F3010008F3010008F3010008C0
:10005000F3010008F3010008F3010008F3010008B0
:10006000F3010008F3010008F3010008F3010008A0
:10007000F3010008F3010008F3010008F301000890
:1000800051090008F3010008F3010008F30100081A
:10009000F3010008F3010008F3010008F301000870
:1000A000F3010008F3010008F3010008F301000860
:1000B000F3010008F3010008F3010008F301000850
:1000C000F3010008F3010008F3010008F301000840
:1000D000F3010008F3010008851E0008F301000881
:1000E000F3010008F3010008F3010008F301000820
:1000F000F3010008F3010008F3010008F301000810
:10010000F3010008F3010008F3010008F3010008FF
:10011000F3010008F3010008F3010008F3010008EF
:10012000F3010008F3010008F3010008F3010008DF
:10013000F30100080000000000000000F3010008C7
:10014000F3010008F3010008F3010008F3010008BF
:10015000F3010008F3010008F3010008F3010008AF
:10016000F3010008F3010008F3010008F30100089F
:10017000F3010008F3010008F3010008000000008B
:1001800000000000F3010008000000000000000073
:10019000F30100080000000000000000F301000867
:1001A000000000000000000000000000F301000853
:1001B000F3010008F3010008F3010008F30100084F
:1001C000F3010008DFF80CD000F0AEFB0048004758
:1001D0006D3200089807002006488047064800470F
:1001E000FEE7FEE7FEE7FEE7FEE7FEE7FEE7FEE7E7
:1001F000FEE7FEE75D1A0008C50100082DE9F05F83
:100200000546002092469B46884606468146402485
:100210001BE0284641464746224600F084FA5346F2
:100220005A46C01A914110D311461846224600F092
:100230006BFA2D1A67EB01084F4622460120002178
:1002400000F062FA17EB00094E41201EA4F10104F0
:10025000DFDC484631462A464346BDE8F09FD2B22D
:1002600001E000F8012B491EFBD270470022F6E79F
:1002700010B513460A4604461946FFF7F0FF20461C
:1002800010BD10B5002200E0521C835C8C5CA342C0
:1002900001D1002BF8D1D8B2E1B2401A10BD000054
:1002A00070B50F4D00B92868002412E00A4602E03C
:1002B0009E4203D0521C1378002BF9D1DAB22243AC
:1002C00005D02BB124B1002100F8011B04E0044645
:1002D000401C0678002EE9D12860204670BD000041
:1002E000680000202DE9FE4F804681EA0300C00F20
:1002F0000C46009021F0004123F00045B8EB0200CD
:10030000A94105D24046214690461C460B4602466E
:1003100023F00040104347D0270DC7F30A00C3F372
:100320000A510290401A019040286BDAC3F313007F
:1003300040F4801B0098924620B10023D2EB030AC0
:1003400063EB0B0B01985946C0F14002504600F098
:10035000DBF906460D4650465946019A00F0F3F97E
:1003600010EB08006141002487EA115284EAE77328
:100370001A4340D0009A62B3019A012A4FEA075209
:1003800015DC001B61EB02014FF0004202EA07524C
:10039000CDE90042001C41F5801132462B4600F0A9
:1003A000F3F903B0BDE8F08F40462146F9E7001BA2
:1003B00061EB0201001C41F5801300185B4120181D
:1003C000A2F5001747EB030140EAD570B6196D415D
:1003D00011E06D084FEA360645EAC0754FEA07524C
:1003E000001B61EB0201001C41F5801149084FEA36
:1003F00030000019514132462B4603B0BDE8F04FA2
:1004000000F0B3B90098012240000023D0EB0202B3
:1004100063EBE073009821464FEAE074B8EB00000C
:1004200061EB0401E9E783F000435BE781F0004101
:1004300058E72DE9FE4F81EA030404F0004421F05F
:10044000004100944FF0000B23F0004350EA0104F8
:100450005ED052EA03045BD0C3F30A54C1F30A55D9
:100460002C44A4F2F3340194A0FB0254C1F3130111
:1004700041F48011C3F3130343F4801301FB0244DE
:1004800000FB034E840A970A44EA815447EA8357E3
:10049000A4FB076802958D0A05FB07854FEA932C9C
:1004A00004FB0C542705029D4FEA065847EA16370D
:1004B000B5EB08056EEB070C870E920E47EA811725
:1004C00042EA8312A7FB0201B6EB0B0164EB0004C6
:1004D0002B0D43EA0C335E1844EB1C50DA465146B0
:1004E000E7FB0201C5F313044FEA0B3343EA14534D
:1004F0004FEA0432019C43EA0603A4F10C0402947F
:10050000009CCDE900B400F03FF903B0BDE8F08FE6
:1005100000200146F9E72DE9F04D81EA030404F0DB
:10052000004B21F0004514464FF0000A23F0004133
:1005300050EA050220D054EA01021DD0C5F30A5743
:100540000246C5F31303C1F31300C1F30A5640F486
:10055000801543F48013A7EB0608101BD64608F25B
:10056000FD3873EB050002D308F1010801E0921891
:100570005B41B8F1000F03DA00200146BDE8F08DC1
:1005800000204FF48011064684460EE0171B73EBE3
:10059000050705D3121B63EB050306434CEA010C68
:1005A00049084FEA300092185B4150EA0107EDD14B
:1005B00052EA030012D082EA040083EA05010843EC
:1005C00005D0101BAB4106D20122002306E0002219
:1005D0004FF0004302E06FF0010253101AEB0600E7
:1005E0004CEB085110EB0A0041EB0B01BDE8F04D5C
:1005F00000F0BBB80EB5C10F80EAE0700844CA072E
:10060000002140F233438DE80E000A460B4600F00D
:10061000BBF803B000BD70B5C1F30A5201F000454C
:100620000024C1F3130140F2FF3341F480119A42D8
:1006300001DA002070BD40F233439A42A2F2334205
:1006400003DC524200F06FF800E090402C43F1D000
:10065000404270BDC1F30A5210B5C1F3130140F21C
:10066000FF3341F480119A4201DA002010BD40F2BC
:1006700033439A42A2F2334203DC524200F053F871
:1006800010BD904010BD00F0004230F000400AD094
:10069000C10D01F56071C0F3160042EA0151C208B4
:1006A00040071143704700200146704730B5041ED3
:1006B00071F1000404DB4FF00044404264EB01019F
:1006C000141E73F1000405DB1C464FF00043524238
:1006D00063EB04038B4208BF824230BD30B50B464A
:1006E000014600202022012409E021FA02F59D4262
:1006F00005D303FA02F5491B04FA02F52844151E36
:10070000A2F10102F1DC30BD202A04DB203A00FA1C
:1007100002F1002070479140C2F1200320FA03F358
:10072000194390407047202A04DB203A21FA02F056
:100730000021704721FA02F3D040C2F1200291401B
:10074000084319467047202A06DBCB17203A41FAA6
:1007500002F043EAE07306E041FA02F3D040C2F14E
:100760002002914008431946704710B5141E73F1DA
:10077000000408DA401C41F1000192185B411A4361
:1007800001D120F0010010BD2DE9F04D92469B46AD
:1007900011B1B1FA81F202E0B0FA80F22032904653
:1007A000FFF7B2FF04460F4640EA0A0041EA0B0198
:1007B00053465A46084313D0114653EA010019D054
:1007C000C8F140025046FFF7AEFF05460E465046C0
:1007D00059464246FFF798FF084305D0012004E040
:1007E00020463946BDE8F08D0020054346EAE07614
:1007F0002C4337430A986305E40AA0EB0800002263
:10080000FD0A44EA47540A3002D500200146E9E7D0
:10081000010510196941DDE9084500196941BDE884
:10082000F04DA2E72DE9F04D00231A461B1A8A412C
:1008300003DB00200146BDE8F08DC1F30A52C1F38D
:10084000130141F480154FF0000BD10702D10018BD
:100850006D41521E0027044640F2FF11384601EB5D
:10086000620A3E468046024600204FF48011FFF7A0
:100870005AFFC2197141BB1846EB0100B4EB030CDF
:1008800075EB000C04D3E41A65EB000517460E4621
:10089000241908F101006D4180463428E3DDF9197F
:1008A00046EB0600091BA84103D24FF0FF32134666
:1008B00001E0002213461BEB070046EB0A51BDE89E
:1008C000F04DFFF752BFC1F30A52C1F3130140F2DA
:1008D000FF3341F480119A4202DA0020014670474A
:1008E00040F233439A42A2F2334202DC5242FFF713
:1008F0001ABFFFF709BF000030B5041E71F10004F4
:1009000004DB4FF00044404264EB0101141E73F11C
:10091000000405DB1C464FF00043524263EB040326
:10092000994208BF904230BD064C074D06E0E06892
:1009300040F0010394E8070098471034AC42F6D326
:10094000FFF744FCF036000810370008FEE700000F
:10095000014800F0FFB800003401002001681823AE
:10096000CAB2103AB2FBF3F2054B6FF30901032A46
:100970009B5CC36500D9091D81650846704700006E
:100980003436000810B5014600208B698A6A4FF0A2
:10099000C07453B1B3F5005F15D072B1012A0CD009
:1009A000022A0AD0032A09D104E01AB1012A06D08A
:1009B000022A03D1C96AC90100D5012010BDC96A44
:1009C000A142FAD010BD002AF7D0012AF2D0022AA3
:1009D000F3D0032AF3D010BD7047704770B5437948
:1009E000012B1AD0012646710223037105682C6879
:1009F00040F6FE7393409C43D1E900310B43934092
:100A000023432B6001680B68C0249440A3430B6010
:100A1000067100214171084670BD022070BD70B59D
:100A2000040003D02079002510B105E0012070BD3D
:100A30006571204600F008F8022020712561012030
:100A40002071002070BD000010B586B0044614214E
:100A50006846FFF70BFC1149206888421CD11048FA
:100A60000021026842F000520260006800F000506D
:100A700005900B481038026842F0010202600068DD
:100A800000F001000590302000900320CDE9010125
:100A90006946044800F0AAF906B010BD0074004091
:100AA000403802400000024018B504680094006815
:100AB000104421B1143000900360002018BD0830AC
:100AC000F9E730B54279012A16D00122427102239A
:100AD000037103681D6802FA01F425431D600029B3
:100AE00001680B680AD00C6803F4802304F46014D6
:100AF000B3F5802F0FD015E0022030BD0C6803F055
:100B0000040304F03804042B0CD1382C0AD14B68B0
:100B100043F0010305E0B4F5601F03D14B6843F0D7
:100B200002034B60027100214171084630BD90F80C
:100B30003510022903D0802141650120704705212D
:100B400080F835100068016821F001010160002083
:100B5000704700002DE9F84304464FF00009CDF836
:100B6000009063484FF41651A56D0068B0FBF1F793
:100B70002E6894F85C10082000FA01F131420FD081
:100B800021680A6852070BD50A6822F004020A603D
:100B900094F85C108840A860606D40F001006065CA
:100BA00094F85C104FF0010808FA01F0304208D0C8
:100BB00021684969090604D5A860606D40F002000B
:100BC000606594F85C1004208840304208D02168A9
:100BD0000968890704D5A860606D40F0040060656D
:100BE00094F85C1010208840304218D021680968C1
:100BF000090714D5A86020680168490304D5006876
:100C0000000308D5A16C07E00168C90503D4016899
:100C100021F008010160216C09B12046884794F851
:100C20005C1020208840304231D021680968C90614
:100C30002DD5A86094F8350005282068016806D0F5
:100C4000490347D5006800031DD4616C1CE021F006
:100C5000160101602068416921F080014161206C2A
:100C600008B9A06C20B12068016821F0080101607A
:100C700094F85C103F208840A86084F8349084F891
:100C80003580216D1FE0E16B09B120468847606D1A
:100C900000282BD0606DC00714D0052084F83500E3
:100CA0002068016821F0010101600098401C00905B
:100CB000B84203D820680068C007F6D184F83490A1
:100CC00084F83580E16C002910D001B02046BDE8E1
:100CD000F04308470168C905D5D4016821F0100127
:100CE000016084F8349084F83580CCE7BDE8F8835F
:100CF000640000202DE9F041044600F04FF906465B
:100D00005CB1002584F83450022084F83500206856
:100D1000016821F0010101600DE00120BDE8F081D2
:100D200000F03CF9801B052805D9202060650320D0
:100D300084F83500F2E720680068C007F0D1226827
:100D4000116820480140D4E901031843D4E903366F
:100D50003343184363691843A3691843E36918438D
:100D6000236A18430843616A042903D1D4E90B13A9
:100D700019430843106020684069666A20F0070143
:100D800030460E43012704280CD1A06A0643E06ACE
:100D900040B12046FFF7F6FD20B14020606584F8A1
:100DA0003570BAE7206846612046FFF7D7FD94F812
:100DB0005C203F2191408160656584F8357000209A
:100DC000ACE700003F8010F070B5044600F0E6F894
:100DD0000546601C02D004480078044400F0DEF8A8
:100DE000401BA042FAD370BD580000202DE9F84FF7
:100DF000DFF874B100224FF001084FF0030A4FF002
:100E00000F090BF1040E00BF0B6808FA02F423402F
:100E1000A3426ED14D68022D01D0122D0ED1D508FE
:100E200000EB850CDCF820505607F70E09FA07F6A0
:100E3000B5430E69BE402E43CCF8206006685500CD
:100E40000F790AFA05FC07F0030726EA0C06AF4003
:100E5000374307604E68012E05D0022E03D0112EB5
:100E600001D0122E0ED18668CF6826EA0C06AF405C
:100E7000374387604668A6430C79C4F30014944056
:100E800034434460C4688E6824EA0C04AE402643B0
:100E9000C6604C68E40060D5344C256845F4804554
:100EA0002560246822F0030504F480440094304C4B
:100EB0002E19D6F8084895072F0F09FA07F5AC4305
:100EC0002C4DA84201D100251FE02B4DA84201D195
:100ED00001251AE0294DA84201D1022515E0284D2F
:100EE000A84201D1032510E0264DA84202D10425D5
:100EF0000BE032E0244DA84201D1052505E0234D49
:100F0000A84201D1062500E00725BD402543C6F8CB
:100F10000858DBF800405D464E689C43F60300D558
:100F20001C432C60DEF8004075464E689C43B603B7
:100F300000D51C432C600C4D08352C684E689C4332
:100F4000F60200D51C432C60074D0C352C684E680A
:100F50009C43B60200D51C432C60521C102AFFF49F
:100F600053AFBDE8F88F0000003C01404438024018
:100F7000003001400000024000040240000802402E
:100F8000000C024000100240001402400018024011
:100F90000AB1816170470904FBE7000001488068DD
:100FA0007047000058000020024881680278114410
:100FB00081607047580000200B4810B5016841F46B
:100FC00000710160016841F480610160016841F4D1
:100FD00080710160032000F071F8002000F006F835
:100FE00000F024F8002010BD003C024070B50D4D0B
:100FF00004464FF47A712878B1FBF0F00A49096889
:10100000B1FBF0F000F010FB48B9102C07D2002221
:101010002146501E00F032F800206C6070BD0120A7
:1010200070BD000058000020640000200B4882B012
:10103000016841F480410160006800F48040009044
:101040000648001F016841F080510160006800F00F
:1010500080500090072002B000F030B844380240C1
:10106000002809DB00F01F020121914040098000A7
:1010700000F1E020C0F8001170470000F0B40E4B02
:101080001B680C46C3F30223C3F10705042D00D9E6
:101090000425191D072901D2002300E0DB1E0126CB
:1010A00006FA05F1491E214099409E40761E1640E1
:1010B0003143F0BC00F016BF0CED00E0064900F033
:1010C000070208684FF6FF03184040EA0220034A6F
:1010D00010430860704700000CED00E00000FA05C6
:1010E0002DE9F0470E46050065D0DFF81481D8F8E9
:1010F0000000F7B200F00F00B04207D288F800708D
:10110000D8F8000000F00F00B04254D128683D4CE0
:10111000810712D5400703D5206840F4E0502060D5
:101120002878000703D5206840F4604020602068DC
:10113000A96820F0F000084320602878C0072DD06F
:10114000304968680839012812D0022813D00328D2
:1011500011D00968890700292DDA216821F00301DF
:1011600001432160FFF71AFF814641F2883A0EE001
:1011700009688903EFE709688901ECE7FFF70EFFCB
:10118000A0EB0901514502D90320BDE8F087206892
:10119000696800F00C00B0EB810FEFD1D8F80010B7
:1011A000404601F00F01B14207D90770006800F016
:1011B0000F00B04201D00120E7E72878400705D5AD
:1011C0002068E96820F4E050084320602878000790
:1011D00006D52068296920F4604040EAC1002060FB
:1011E00000F036F82168084AC1F30311515CC84089
:1011F000064908600020FFF7F9FE0020C5E700005F
:10120000003C0240083802403C36000864000020E0
:101210000448054900680968044AC1F38221515C09
:10122000C840704764000020083802404C3600086F
:101230000448054900680968044AC1F34231515C19
:10124000C840704764000020083802404C3600084F
:10125000224810B5006810F00C02214815D041104A
:10126000042A11D01D4C241F082A0FD00C2A0CD19F
:101270002268236802F03F025B0221D52068C0F398
:101280008810A0FB010120E0084610BD22682368F9
:1012900002F03F025B0205D52068C0F38810A0FB76
:1012A000010104E02168C1F38811A1FB00010023C2
:1012B000FEF7A4FF2168C1F30141491C49000AE07F
:1012C0002168C1F38811A1FB00010023FEF796FFFE
:1012D0002168C1F30271B0FBF1F010BD0838024083
:1012E0000024F4002DE9F84F0546DFF828B3007814
:1012F000ABF10407C007A7F1040451D0DBF80010DC
:101300005846C1F3810101290FD00168C1F3810161
:10131000022902D13968490207D40068C0F381006C
:10132000032809D13868400206D52068800337D5E4
:101330006868002872D033E06868B0F5803F10D04C
:10134000B0F5A02F206810D020F4803020602068F5
:1013500020F4802020606868A8B1FFF71FFE0646D1
:101360000DE0206840F48030F4E740F480202060F5
:10137000F7E700BFFFF712FE801B642878D82068CB
:101380008003F7D50CE0FFF709FE064605E000BF35
:10139000FFF704FE801B6428F0D820688003F7D490
:1013A0002878DFF8749280074FF0000A46D5DBF802
:1013B0000010584611F00C0F0FD00168C1F38101E5
:1013C000022902D13968490207D50068C0F38100BB
:1013D000032809D13868400206D42068800715D553
:1013E000E86801281AD111E0E868C0B10120C9F805
:1013F0000000FFF7D3FD064605E000BFFFF7CEFD76
:10140000801B0228BAD820688007F7D52068296990
:1014100020F0F80040EAC10020600FE0F7E0C9F8D2
:1014200000A0FFF7BBFD064605E000BFFFF7B6FDD5
:10143000801B02281CD820688007F7D42878000772
:1014400027D5DFF8D0817548696908F16C0881B14A
:1014500001210160FFF7A2FD064604E0FFF79EFDB3
:10146000801B022804D8D8F800008007F6D510E0C9
:1014700089E0C0F800A0FFF791FD064605E000BF37
:10148000FFF78CFD801B02287DD8D8F8000080076C
:10149000F6D42878400769D55E484FF00008383008
:1014A0000068C0000BD45B483830016841F08051BF
:1014B000016000684FF0010800F080500090584E25
:1014C0003068C00511D4306840F480703060FFF798
:1014D00065FD009006E000BFFFF760FD0099401A2F
:1014E000022850D83068C005F6D54A4EA86868363C
:1014F00001280FD00528306810D020F0010030609E
:10150000306820F004003060A868B8B1FFF746FDED
:1015100000900FE0306840F00100F4E740F0040074
:101520003060F7E7FFF73AFD0099411A41F2883041
:10153000814264D830688007F4D50EE0FFF72EFDB5
:10154000009007E0FFF72AFD0099411A41F2883028
:10155000814254D830688007F4D4B8F1000F05D028
:101560002C483830016821F080510160A869A8B387
:10157000DBF80010C1F38101022948D00228C9F824
:1015800060A005D000E03AE0FFF708FD054639E02D
:10159000FFF704FD064604E0FFF700FD801B02286C
:1015A0002DD820688001F7D4F5E907010843E968E0
:1015B0001C4A490802EB0141AA6841EA821108432A
:1015C000297C40EA0160297D40EA017038600120F1
:1015D000C9F86000FFF7E2FC054606E015E000BF31
:1015E000FFF7DCFC401B022809D820688001F7D5F2
:1015F0000BE000BFFFF7D2FC401B022802D90320FA
:10160000BDE8F88F20688001F4D40020F8E70120BD
:10161000F6E700000838024000004742800E4742CB
:10162000007000400000FFFF10B5401EB0F1807F49
:1016300001D3012010BD4FF0E02460610F2160173D
:1016400000F050FC0020A06107202061002010BDA8
:101650007047000070B5026804461068D16853698D
:1016600010F00F0F50D003F0010501F490763543D0
:101670005DD0C20705D0CA0503D5E26B42F0010276
:10168000E263420705D5DA0703D0E26B42F00202BB
:10169000E263820705D5DA0703D0E26B42F0040269
:1016A000E263020705D5DA0703D0E26B42F00802D5
:1016B000E263E26B002A33D0800604D5880602D5A7
:1016C000204600F00BFA20684069E16BC0F38010FF
:1016D000090700D428B3204600F0F2F920684169D8
:1016E00049061AD5416921F040014161606BA0B102
:1016F0001B490165606BFFF71AFA002810D0606B78
:10170000016DBDE870400847830610D58B060ED5E5
:101710002046BDE8704000F0E1B92046FFF798FF91
:1017200070BD2046FFF794FF0020E06370BD030604
:1017300006D50B0604D52046BDE8704000F070BB0E
:101740004006F3D54806F1D5D168204621F0400186
:10175000D160202184F8391000F0FBF870BD000042
:10176000B11A000870B5040004D094F839000025BF
:1017700010B106E0012070BD84F83850204600F01A
:1017800023F8242084F839002068C16821F400512E
:10179000C160204600F0EEF92068016921F4904113
:1017A00001612068416921F02A0141612068C16816
:1017B00041F40051C160E563202084F8390084F8C9
:1017C0003A00002070BD000070B586B006461421B6
:1017D0006846FEF74BFD24493068884241D12348D2
:1017E0000025016841F400310160006800F4003018
:1017F00005901E481038016841F001010160006841
:10180000694600F0010005900C2000900220019034
:101810000120029003200390072004901448FFF752
:10182000E5FA154C134820604FF00060C4E901054B
:101830004014C4E9035080106561C4E90650256274
:1018400020466562FFF756FA08B1FFF7C6F87463E1
:10185000002211462620A663FFF710FC2620FFF782
:10186000FFFB06B070BD000000440040403802405D
:1018700000000240886002403401002090F83A30B5
:10188000202B22D1F9B1F2B190F83830012B1CD0C5
:1018900081628285C2850021C163222280F83A20BC
:1018A00080F838100168CA6842F48072CA60016822
:1018B0004A6942F001024A610068C16841F02001B2
:1018C000C16000207047012070470220704700006F
:1018D00010B50E4C6069401C6061E169491CE16112
:1018E0000B49884202D1A1F16400606108480122DD
:1018F00014306169FFF7C2FF0028F7D1606910F862
:10190000010C0A2801D10120A06110BD00000020B7
:10191000E000002090F83930202B18D1A9B1A2B1F5
:1019200090F83830012B12D001628284C2840021E9
:10193000C163212280F8392080F838100068C1681E
:1019400041F08001C16000207047012070470220F3
:1019500070477047FEE7000030B587B01421684635
:10196000FEF784FC16480024016841F00401016080
:10197000016801F004010591016841F00101016075
:101980000068104D00F0010005902246082128460D
:10199000FFF7FEFA4FF40050CDE9000469462846EF
:1019A0000294FFF723FA082000900120CDE90104FA
:1019B000694628460394FFF719FA07B030BD0000C6
:1019C0003038024000080240FEE770477047704719
:1019D000FFF7EABA30B593B034216846FEF746FC0B
:1019E00014210DA8FEF742FC1A480025016841F0B9
:1019F00080510160006800F0805012901648016824
:101A000021F4404141F4804101600068022400F467
:101A100040401290012003901020009406940490FE
:101A2000CDE907504FF4A87009900420CDE90A04CD
:101A300068460C94FFF756FC0DA90F2081E8310091
:101A4000E002CDE9100502210DA8FFF749FB13B014
:101A500030BD00004038024000700040104801686E
:101A600041F4700101600F48016841F0010101601B
:101A70000C4A00210832116002680B4B1A400260C8
:101A8000031D0A4A1A60026822F480220260054897
:101A90000C30016002495806803908607047000028
:101AA00088ED00E000380240FFFFF6FE1030002411
:101AB00010B5806B0021C185C184FFF7C9FD10BD41
:101AC0000168CA6822F49072CA6001684A6922F00B
:101AD00001024A61202180F83A10704710B590F851
:101AE0003A10222901D0022010BD8168B1F5805F33
:101AF00011D00169002901681FD0496801F07F03F6
:101B0000816A4A1C82620B70C18D491E0904090C4E
:101B1000C18518D02BE00269816A002A02685268E8
:101B200005D0D2B20A80816A491C8162ECE7C2F317
:101B300008020A80816A891CF7E74A68816A4B1C9F
:101B400083620A70E0E70168CA6822F02002CA6076
:101B50000168CA6822F48072CA6001684A6922F08A
:101B600001024A61202180F83A10FFF7B1FE0020FF
:101B700010BD00002DE9F041044600680169E268EB
:101B800021F44051114301612169A068E2690843D1
:101B90006169114322680843D16849F20C63994393
:101BA0000143D16020684169A26921F44071114369
:101BB0004161E2696425B2F5004F97489749226870
:101BC0004FF032083FD08A4201D082427CD1FFF7E9
:101BD0002FFB00EBC00101EB001061688900B0FB36
:101BE000F1F6FFF725FB00EBC00101EB0010616887
:101BF0008900B0FBF1F0B0FBF5F06FF0180148433D
:101C000006EB800108EB0110B0FBF5F000F0F006E8
:101C1000FFF70EFB00EBC00101EB001061688900CB
:101C2000B0FBF1F0B0FBF5F006EB0016FFF700FBA0
:101C300000EBC00101EB001061688900B0FBF1F717
:101C4000FFF7F6FAD2E08A4201D082423DD1FFF797
:101C5000EFFA00EBC00101EB001061684900B0FB36
:101C6000F1F0B0FBF5F00601FFF7E2FA00EBC0017E
:101C700001EB001061684900B0FBF1F7FFF7D8FAFB
:101C800000EBC00101EB001061684900B0FBF1F00E
:101C9000B0FBF5F06FF01801484307EB800108EB4B
:101CA000C100B0FBF5F000F0F80006EB4006FFF7CE
:101CB000BFFA00EBC00101EB001061684900B0FB06
:101CC000F1F7FFF7B5FA3CE055E0FFF7A1FA00EBBA
:101CD000C00101EB001061684900B0FBF1F0B0FBFE
:101CE000F5F00601FFF794FA00EBC00101EB0010DC
:101CF00061684900B0FBF1F7FFF78AFA00EBC00119
:101D000001EB001061684900B0FBF1F0B0FBF5F0A9
:101D10006FF01801484307EB800108EBC100B0FBEE
:101D2000F5F000F0F80006EB4006FFF771FA00EB63
:101D3000C00101EB001061684900B0FBF1F7FFF74B
:101D400067FA00EBC00101EB001061684900B0FBCD
:101D5000F1F0B0FBF5F06FF01801484307EB80019C
:101D600008EBC100B0FBF5F000F00700216830443B
:101D70008860BDE8F081FFF74BFA00EBC00101EB92
:101D8000001061688900B0FBF1F6FFF741FA00EB43
:101D9000C00101EB001061688900B0FBF1F0B0FBFD
:101DA000F5F06FF01801484306EB800108EB0110D5
:101DB000B0FBF5F000F0F006FFF72AFA00EBC001E7
:101DC00001EB001061688900B0FBF1F0B0FBF5F0A9
:101DD00006EB0016FFF71CFA00EBC00101EB001048
:101DE00061688900B0FBF1F7FFF712FA00EBC00160
:101DF00001EB001061688900B0FBF1F0B0FBF5F079
:101E00006FF01801484307EB800108EB0110B0FBAD
:101E1000F5F000F00F00A9E70014014000100140A8
:101E200090F83910212901D0022070478168B1F55E
:101E3000805F016A0BD04A1C026202680978516017
:101E4000C18C491E0904090CC1840ED017E0098811
:101E50000268C1F30801516001690029016A02D0DA
:101E6000491C0162ECE7891CFBE70168CA6822F0A3
:101E70008002CA600068C16841F04001C160002072
:101E8000704700000148FFF7E5BB0000F4000020A8
:101E9000FEE700000FB4054B10B503A9044A0298F1
:101EA00000F0C6FB10BC5DF814FB00005D300008BC
:101EB0006C00002003B401984100009850EAC12052
:101EC00018BF04204A0D18BF40F0010040F2FF7215
:101ED000B2EB515F08BF40F00200012808BF0520A7
:101EE00002B070470907090E002804DB00F1E0206A
:101EF00080F80014704700F00F0000F1E02080F837
:101F0000141D70470000000070B59B482DED020BBA
:101F10002DED068B079D25F00044A04218DC974864
:101F2000844202DC0AD1069840B19DED060BBDEC5F
:101F3000068B02B0BDE8704000F087BA002DCCBF20
:101F40009FED8F0B9FED900BBDEC068B02B070BD2B
:101F50008F48A04215DD8F48A042D8BF4FF0FF3414
:101F600058DD9DED060B51EC100BFFF7A3FF042885
:101F700008BF00F075FA9DED060BBDEC068B02B0B4
:101F800070BD9DED060B51EC100B01F05BF8CDE937
:101F9000060181489FED828BA0423CDD8248A04231
:101FA0001FDD00249FED82AB9DED060B53EC1A2B39
:101FB00051EC100BFEF796F99DED060B41EC190B59
:101FC00053EC1A2B51EC100BFEF733FA53EC182B91
:101FD000FEF729FA53EC192BFEF79DFACDE906011D
:101FE00049E09DED060B012453EC182B51EC100B2E
:101FF000FEF778F99DED060B41EC190B53EC182B0D
:1020000051EC100BFEF70FFA53EC192BFEF783FA85
:10201000CDE906012FE06848A0421FDD02249FEDB4
:10202000689B9DED060B53EC192B51EC100BFEF742
:1020300000FA53EC182BFEF755F99DED060B41EC19
:10204000180B53EC192B51EC100BFEF7ECF953EC79
:10205000182BFEF760FACDE906010CE09DED060BAA
:10206000032453EC102B9FED580B51EC100BFEF793
:1020700052FACDE906019DED060B53EC102B51EC05
:10208000100BFEF7D6F941EC180B53EC182BFEF7AA
:10209000D0F941EC190B4E480621B0EE490AF0EE9A
:1020A000690A784400F055F953EC182B51EC100BE9
:1020B000FEF7BFF941EC180B4648B0EE490AF0EEC6
:1020C000690A0521784400F044F953EC192B51ECCE
:1020D000100BFEF7AEF941EC100B51EC180B53EC62
:1020E000102B002C0EDAFEF7FDF89DED061B53ECCD
:1020F000112BFEF79EF99DED061B53EC112BFEF7FD
:1021000095F935E0FEF7EEF89DED061B53EC112B2B
:10211000FEF78FF941EC100B2F48784400EBC40018
:1021200090ED001B51EC100B53EC112BFEF77BF9DB
:102130009DED061B53EC112BFEF775F941EC100BCE
:102140002648784400EBC40090ED001B51EC100BC6
:1021500053EC112BFEF76AF941EC100B002DA2BFD6
:10216000BDEC068B02B070BD51EC100B81F000414C
:1021700041EC100B01E70000000010440000F07F6C
:10218000182D4454FB21F93F182D4454FB21F9BF6D
:102190000000DC3F0000203E0000F33F0000000094
:1021A000000000000000F03F0000E63F00000000DB
:1021B000000000000000004000800340000000001C
:1021C000000000000000F83F000000000000F0BF29
:1021D0001A160000D01500005A1500001215000054
:1021E00070B505002DED088B01D0002402E0AFF39F
:1021F0000080641C285D00F046FF0028F9D1285DAE
:102200002D2805D04FF0010605D02B2803D003E080
:102210004FF0FF36F8E7641C9FED298B9FED2ABB3A
:1022200011E03038FEF7E6F941EC190B53EC1B2BAB
:1022300051EC180BFEF7FDF853EC192BFEF752F892
:1022400041EC180B641C285D00F016FF0028285D87
:10225000E7D12E2800D1641C9FED1D9B1AE0285D5C
:102260003038FEF7C7F941EC1A0B53EC1B2B51EC3D
:10227000180BFEF7DEF853EC1A2BFEF733F841EC9F
:10228000180B53EC1B2B51EC190BFEF7D2F841EC59
:10229000190B641C285D00F0EFFE0028DFD13046EA
:1022A000FEF7A8F953EC182BFEF7C3F853EC192BE3
:1022B000FEF731F9BDEC088B41EC100B70BD00004E
:1022C00000000000000000000000000000002440AA
:1022D000000000000000F03F00B52DED048BB0EED3
:1022E000409AF0EE609A83B051EC190BFEF79AFA1F
:1022F00041EC180B18EE100A18EE901A8DED008BB9
:10230000002818BF0120084320F00040C0F17F6082
:1023100000F1E040C00F14D019EE101A19EE900A27
:102320008DED009B002918BF0121084320F00040DB
:10233000C0F17F6000F1E040C00F04BF012000F059
:10234000AFF8B0EE480A03B0F0EE680ABDEC048BBB
:1023500000BD70B504462DED028B4D1E00EBC5008F
:10236000B0EE408AF0EE608A90ED000B35F006008A
:1023700017D053EC182B51EC100BFEF75AF841EC28
:10238000100B6D1E04EBC50090ED001B51EC100B03
:1023900053EC112BFDF7A6FF41EC100B35F00600B6
:1023A000E7D1022D36D0042D1CD0062D1CBFBDEC6C
:1023B000028B70BD53EC182B51EC100BFEF739F863
:1023C00094ED0A1B53EC112BFDF78CFF53EC182BEB
:1023D000FEF72FF894ED081B53EC112BFDF782FF4D
:1023E00041EC100B53EC182B51EC100BFEF721F8BD
:1023F00094ED061B53EC112BFDF774FF53EC182BD7
:10240000FEF717F894ED040B53EC102BFDF76AFF61
:1024100041EC100B53EC182B51EC100BFEF709F8A4
:1024200094ED021B53EC112BFDF75CFF53EC182BC2
:10243000FDF7FFFF94ED001B53EC112BFDF752FF4E
:10244000BDEC028B41EC100B70BD10B553EC102BA2
:1024500051EC100BFDF746FF41EC100B10BD0000D6
:102460009FED050B10B553EC102B51EC100BFDF745
:10247000E0FF41EC100B10BD000000000000001058
:1024800002E008C8121F08C1002AFAD1704770473D
:10249000002001E001C1121F002AFBD1704700009B
:1024A0000149086070470000780000202DE9FF5FB7
:1024B00082B00021DDE90430020DDDF840B00343B5
:1024C00018D044F61050A2F2FF324243151411986E
:1024D00001281FD0A5EB0B00401C5FEA000A4FF05B
:1024E00000064E4FDFF83891B046504615D5CAF178
:1024F000000413E0119801244AA3012801D16FEAD6
:102500000B010298119AC0E90031C0E9024206B0FD
:10251000BDE8F09FCBF10000DFE704460021404A10
:10252000491842EB0450CDE9001012E0E00707D053
:1025300032463B4640464946FDF77BFF804689468A
:1025400032463B4610461946FDF773FF06460F46D6
:102550006410002CEAD1DDE90401DDE90023BAF1C1
:10256000000F06DAFDF765FF42464B46FDF761FFB7
:1025700005E0FDF7D0FF42464B46FDF7CCFF044691
:102580000E460022284BFEF7B7F903D84FF0FF3074
:10259000014607E00022254B20463146FDF7A2FE0A
:1025A000FEF791F9102409E0002C0ADB0A2200232F
:1025B000FDF724FE039B30321A55641E50EA0102D7
:1025C000F2D1641C039AC4F111031444119A012A34
:1025D00003D0012208430DD10AE0084304D00020B3
:1025E0004FF0110B119072E7A3EB0B056D1E0DE080
:1025F0005B4504DD4FF0000205F1010504E003DA5C
:102600004FF00002A5F10105002AECD002981199C3
:10261000C0E90231C0E9004579E70000000014403C
:102620000000F03F300000000000F0430000E03FF9
:102630002DE9FF4F95B09B468946064600250FE2DF
:10264000252877D100242746F84A0121059400E087
:10265000044316F8013F203B01FA03F01042F7D182
:1026600030782A2811D06FF02F033078A0F1300293
:10267000092A16D8059A44F0020402EB820203EB01
:1026800042021044761C0590EFE759F8042B05929E
:10269000002A03DA504244F40054059044F0020446
:1026A000761C30782E2816D116F8010F44F0040459
:1026B0002A280DD06FF02F023078A0F13003092BBB
:1026C00009D807EB870302EB4303C718761CF3E72F
:1026D00059F8047B761C30786C280FD006DC4C2827
:1026E00017D068280DD06A2814D104E0742810D0BF
:1026F0007A280FD10DE044F400140AE044F4801469
:1027000001E044F440147278824202D104F580144E
:10271000761C761C307866280BD013DC582877D0CE
:1027200009DC002875D04528F6D04628F4D0472883
:102730001AD19DE118E0632835D0642879D0652846
:1027400012D195E1702873D008DC6728F1D0692890
:102750006FD06E280DD06F2806D1B5E073282CD02D
:10276000752875D0782874D05A46179990476D1CF3
:1027700075E1C4F30250022809D003280DD0D9F81E
:10278000001004280DD00D6009F1040967E1D9F8A3
:102790000010EA17C1E90052F6E7D9F800100D80E1
:1027A000F2E70D70F0E719F8041B8DF80010002017
:1027B0008DF80100EA46012003E059F804AB4FF020
:1027C000FF3061074FF0000102D40DE008F1010174
:1027D0008846B9420FDA8045F8DB1AF8081000295C
:1027E000F4D108E008F1010188468142FADB1AF8C9
:1027F00008100029F6D105985B46A0EB0807214692
:102800003846179A00F094FA284400EB080507E0D0
:102810004DE029E10DE01AF8010B5A46179990474F
:10282000B8F10108F7D25B4621463846179A13E102
:1028300042E00A220092C4F302524FF0000A022A38
:1028400008D059F804CB032A4FEAEC710AD00DE006
:1028500029E02AE009F1070121F00702F2E802C1AC
:10286000914609E00FFA8CFC4FEAEC71042A03D17F
:102870004FFA8CFC4FEAEC71002907DA0A46002176
:10288000DCF1000C61EB02012D2202E0220504D5EF
:102890002B228DF80420012203E0E20701D0202240
:1028A000F7E7904659E00A2102E010220DE01021DE
:1028B0004FF0000A00910BE010224FF0000A44F0A4
:1028C00004040827009203E008224FF0000A009257
:1028D000C4F30252022A05D059F804CB0021032A7E
:1028E00008D009E009F1070121F00702F2E802C16E
:1028F000914605E01FFA8CFC042A01D10CF0FF0C74
:102900004FF00008220728D5702806D0009B83F0DE
:10291000100353EA0A0305D00EE040228DF804208C
:10292000012208E05CEA010206D030228DF8042082
:102930008DF8050002229046009B83F0080353EABD
:102940000A030AD15CEA010201D1620705D53022EF
:102950008DF804204FF001087F1E582804D034A0C1
:1029600003900EA802900DE036A0F9E753466046AA
:10297000009AFDF743FC84460398825C0298401E4F
:10298000029002705CEA0100F0D1029806A9081AD0
:1029900000F1200A600702D524F4803400E001270A
:1029A000574502DDA7EB0A0000E0002000EB0A011A
:1029B000009005984144401A0590E00306D45B4618
:1029C0002146179A059800F0B3F90544002706E060
:1029D00001A85A46C05D179990476D1C7F1C47455A
:1029E000F6DBE0030CD55B462146179A059800F00C
:1029F0009FF9054404E030205A46179990476D1C12
:102A00000099481E00900029F5DC08E00298029920
:102A10005A460078491C0291179990476D1CBAF1EB
:102A20000001AAF1010AF1DC65E1000009280100BA
:102A30003031323334353637383961626364656634
:102A400000000000303132333435363738394142F6
:102A5000434445460000000000F058F90544761C48
:102A6000307800287FF4ECAD19B02846BDE8F08F2F
:102A7000620700D4062709F1070222F0070CFCE8E0
:102A80000223E14603F000485FEA080C02D00FF28F
:102A9000702C0DE05FEA045C02D50FF2682C07E0B1
:102AA0005FEAC47C02D00FF2602C01E0AFF2700C40
:102AB0004FF0FF3823F00043CDF850C065280CD00C
:102AC00006DC452809D046281DD047283DD13DE0E9
:102AD000662818D067287ED138E00021112F01DB4D
:102AE000112000E0781CCDE9000106A90EA8FFF72F
:102AF000DDFCDDE90F010E9A03910021009207F140
:102B0000010A04914DE04FF000400097CDE901101B
:102B100006A90EA8FFF7CAFCDDE90F0203920E9B7F
:102B200011990022DDF80CA00093049211B9791CD0
:102B300000EB010AB7EB0A0004D4C0F1FF3007F143
:102B4000010A0490AAEB0700019044E0012F00DA8B
:102B500001270021112F01DD112000E03846CDE9C9
:102B6000000106A90EA8FFF7A1FCDDE90F010E9AEE
:102B70000391002104910092BA4621070CD40399D5
:102B8000514500DA8A46BAF1010F05DD009AAAF133
:102B90000101515C302908D0B84202DA10F1040F6B
:102BA00006DA0121CDE9011015E0AAF10101E9E7FA
:102BB000002805DC049901440491AAEB000102E01D
:102BC000411C514500DD8A460499401A401C019081
:102BD0004FF000400290200704D40198504501DBDB
:102BE000CDF8048000208DF84F0002980DF14F07BA
:102BF000B0F1004F25D02B200E9002984FF0020824
:102C000000280CDA404202902D200E9007E00A21A5
:102C10000298FDF763FD3031029007F8011DB8F10D
:102C20000001A8F10108F2DC02980028EFD1791E1A
:102C30000E980870307800F0200040F0450007F84A
:102C4000020D12A8C01B00F107081498007800B10B
:102C5000012000EB0A01019801EBE0710598414465
:102C6000401A401E0590E00306D45B462146179AA1
:102C7000059800F05DF805441498007818B15A469C
:102C8000179990476D1CE00324D55B462146179A9F
:102C9000059800F04DF805441CE00498002807DB77
:102CA000DDE90301884203DD0098405C179901E0EB
:102CB000179930205A469047049805F10105401CA9
:102CC00004900198401E019004D12E205A46179975
:102CD00090476D1CBAF10001AAF1010ADDDC05E0A4
:102CE00017F8010B5A46179990476D1CB8F100016F
:102CF000A8F10108F4DC5B462146179A0598ABE67B
:102D00002D0000002B000000200000002DE9F04104
:102D1000044600251E461746880404D405E03946BB
:102D20002020B0476D1C641EF9D52846BDE8F0810F
:102D30002DE9F041044600251E469046C80301D502
:102D4000302700E02027880404D505E041463846B6
:102D5000B0476D1C641EF9D52846BDE8F08100001F
:102D60002DE9F04F00252DED108B8FB0B0EE43BA5A
:102D7000F0EE63BAB0EE41DAF0EE61DAB0EE40CADE
:102D8000F0EE60CAA946584C4FF0010A9FED579BE0
:102D900051EC120B53EC192BFDF74BFB02910690F3
:102DA00081E0002753EC182B51EC1B0BFDF741FB86
:102DB000CDE904015BE00199E80741EC1A8B4BEC8B
:102DC0001E6B206923D0FDF715FC53EC1A2BFDF781
:102DD00030FBB0EE48FAF0EE68FA53EC1F2BFDF72B
:102DE0009AFB53EC1C2BFDF77DFA41EC1A0BE068C3
:102DF000FDF700FC53EC1E2BFDF71BFB53EC1F2BC8
:102E0000FDF789FB53EC1D2BFDF76CFA22E0FDF773
:102E1000F1FB53EC1A2BFDF70CFBB0EE48FAF0EE89
:102E200068FA53EC1F2BFDF776FB53EC1C2BFDF7D8
:102E300059FA41EC1A0BE068FDF7DCFB53EC1E2B52
:102E4000FDF7F7FA53EC1F2BFDF765FB53EC1B2B3B
:102E5000FDF7ECFA41EC110B84F800A0B0EE4A0A41
:102E6000F0EE6A0A00F016F984F800907F1CE06822
:102E7000FDF7C0FB41EC100BDDE9040153EC102B16
:102E8000FDF749FB41EC1A0B3846FDF7B3FB8B46C7
:102E90004BEC120B064653EC1A2B51EC120BFDF7C0
:102EA00005FC88D96D1C2069FDF7A4FB41EC110BD2
:102EB000B0EE498AF0EE698A53EC112B029906981C
:102EC000FDF729FB41EC1A0B2846FDF793FB8046E2
:102ED00053EC1A2B0191FDF7E9FB7FF662AF0FB0BF
:102EE000BDEC108BBDE8F08F00000020000000005A
:102EF00000408F402DE9F04FDFF83C812DED0A8B2B
:102F000083B0B0EE43CAF0EE63CAB0EE42BAF0EE60
:102F100062BAB0EE419AF0EE619AB0EE40AAF0EEDD
:102F200060AAD8F80C00FDF765FB41EC180B53ECD8
:102F3000192B51EC1C0BFDF776FA41EC130B824672
:102F400053EC132B0191FDF774FA41EC1C0B53EC7D
:102F50001B2B51EC1A0BFDF769FA41EC120B814661
:102F600053EC122B0091FDF764FA53EC1C2BFDF788
:102F7000B9F941EC100BFFF7AFF99FED301B51ECA5
:102F8000100B53EC112BFDF754FA53EC182BFDF7F3
:102F9000C2FAFDF740FB0746002445E03846FDF73E
:102FA00029FB41EC180B02910099064641EC1B9B52
:102FB0002046FDF71FFB8B464BEC100B054653ECF0
:102FC0001B2B51EC100BFDF734FA53EC182BFDF7CB
:102FD000A2FA53EC1A2BFDF785F941EC1B0B029971
:102FE0004BEC115B41EC186B019941EC10AB51ECCF
:102FF000110B53EC102BFDF71CFA53EC182BFDF7BB
:103000008AFA53EC192BFDF76DF941EC110B0120F5
:10301000454688F80000B0EE4B0AF0EE6B0A00F06F
:1030200039F800202870641CBC42B7DD03B0BDEC49
:103030000A8BBDE8F08F00000000002000000000B7
:103040000088C34082B0CDE9000121F0004001902A
:103050009DED000B02B051EC100B704713B501222F
:1030600069460448FEF756FC0120FDF7ADFE00203E
:103070001CBD0000F40000203038092801D80120D0
:10308000704700207047202801D0002070470120A1
:103090007047000070B52DED0E8BB0EE418AF0EE5A
:1030A000618AB0EE409AF0EE609A53EC182B51EC26
:1030B000180BFDF7BEF9574C41EC1A0B94ED020AC0
:1030C00020EE000A10EE100AFDF7DDFA53EC1A2B81
:1030D000FDF708F941EC100BFFF7FEF8B0EE401ACF
:1030E000F0EE601AB0EE41AAF0EE61AA6068FDF75A
:1030F000CAFA53EC1A2BFDF7F5F841EC100B51EC22
:10310000190B53EC102BFDF706FA41EC100BFEF7F0
:10311000FBFE9FED41AB51EC100B53EC1A2BFDF76E
:1031200088F99FED3FCB53EC1C2BFDF7F4F99FED95
:103130003EDB53EC1D2BFDF77CF941EC1B0BA0682B
:10314000FDF7A1FA41EC100B51EC180B53EC102BCE
:10315000FDF7E1F941EC100BFEF7D6FE53EC1A2B0C
:1031600051EC100BFDF765F953EC1C2BFDF7D3F96F
:1031700053EC1D2BFDF75DF99FED2DCB41EC1A0BA8
:1031800053EC1C2B51EC1B0BFDF753F99FED2ABBA5
:1031900053EC1B2BFDF7BFF99FED29DB53EC1D2BE7
:1031A000FDF7B9F99FED28EB53EC1E2BFDF741F924
:1031B000FDF731FA054653EC1C2B51EC1A0BFDF7C9
:1031C00038F953EC1B2BFDF7A6F953EC1D2BFDF73B
:1031D000A2F953EC1E2BFDF72CF9FDF71CFA04465F
:1031E00053EC192B1AA0FEF755FE53EC182B1BA01D
:1031F000FEF750FE00222B4611461B48FDF754FCFB
:10320000BDEC0E8B234600221021BDE8704016480D
:10321000FDF74ABC0000002000000000008066406E
:103220004AD8124DFB210940000000000000E03F99
:1032300000000000000014400000000000003E40BC
:103240006666666666660A40000000000000B040E0
:1032500078203D2025660D0A0000000079203D20E1
:1032600025660D0A00000000E00000202DED088B0F
:1032700082B0FDF7A1FEFEF7ADFBFEF76DFBA748A0
:103280000025016841F40011016000682A4600F43D
:103290000010009029461020FDF7F0FE1020FDF7E9
:1032A000DFFEA04E9E4830604FF4E130C6E90105D4
:1032B0000C20F560C6E90450B5613046F561FEF7B3
:1032C00051FAA6F114010095974801950860084647
:1032D000FDF7A5FB009500226946A6F114000195B3
:1032E000FDF77CFB10226946A6F11400FDF776FB82
:1032F0009FED8E8B8F4C53EC182B94ED120B51ECF1
:10330000100BFDF708F99FED8C9B53EC192BFDF783
:1033100090F8FDF79FF9206294ED140B53EC182BF5
:1033200051EC100BFDF7F7F853EC192BFDF781F872
:10333000FDF790F960620021A6F11400FDF7C1FBD2
:103340001021A6F11400FDF7BCFB00231A46194614
:10335000A6F11400FDF7A8FB00231A461021A6F1E0
:103360001400FDF7A1FB012230466169FEF786FAE1
:10337000DFF8CC81A6F17807207808B1012200E0BF
:10338000002208214046FDF703FEA069012876D1FE
:103390006449E26978396BA0921EFEF77BFD3878AC
:1033A000232804D061286BD062286AD0A8E0E069A5
:1033B000401E00F009F9A062E2690021921E02E0BD
:1033C0007B5C4354491C9142FADBE169A06A455495
:1033D00068A1FCF765FFE06200B1206365A10020F1
:1033E000FCF75EFFE06200B1606363A1206BFCF755
:1033F00048FF00285ED162A1606BFCF751FFE062DC
:1034000000B1A0635EA10020FCF74AFFE06200B1BA
:1034100020645BA10020FCF743FFE06200B1E063A1
:1034200057A10020FCF73CFFE06200B16064A06B94
:10343000FEF7D6FEB0EE409AF0EE609A206CFEF7F2
:10344000CFFEB0EE40AAF0EE60AAE06BFEF7C8FE39
:10345000B0EE408AF0EE608A606CFEF7C1FEB0EE1E
:1034600040BAF0EE60BA8DED00AB53EC192B45A0DD
:10347000FEF710FD8DED00BB53EC182B02E048E089
:1034800019E02FE044A0FEF705FDB0EE4B3AF0EE58
:103490006B3AB0EE482AF0EE682AB0EE4A1AF0EE27
:1034A0006A1AB0EE490AF0EE690AFFF723FD3FA061
:1034B000FEF7F0FC24E09FED402BB0EE423AF0EE38
:1034C000623A9FED3F0BB0EE401AF0EE601AFFF744
:1034D00047FC1448002211461438236AFDF7E4FA29
:1034E000636A07E000230F481A4619461438FDF7AF
:1034F000DBFA00230B48002210211438FDF7D4FA20
:10350000084864217838FCF7B1FE6761B762A561AD
:10351000E5610A20FDF758FC2EE700003038024034
:1035200000440040F40000200074004066666666B7
:1035300066660A4000000020000000000000B04065
:1035400000080240636F6D6D616E64207265636593
:10355000697665643A202573206C656E677468200F
:103560006F6620636F6D6D616E64203D2025640D74
:103570000A0000003D000000236C696E6500000039
:103580002C0000007831203D202566207931203D37
:103590002025660D0A0000007832203D2025662097
:1035A0007932203D2025660D0A0000004C494E4529
:1035B0005F4F4B0D0A0000000000000000001440A7
:1035C0000000000000000000F0B50B30154D20F0A9
:1035D00007010024144A0FE003688B420BD38B428F
:1035E00005D95E1A43184768C3E9006700E04368DD
:1035F000136002C004E0021D10680028ECD12046D0
:10360000002802D1286808B10020F0BD064A07480A
:103610001060074A121A22F00702C0E900240120B4
:103620002860D7E774000020700000209C01002073
:103630009803002000061016000610160000000077
:103640000000000001020304060708090000000052
:1036500001020304000000004FBB610567ACDD3FC1
:10366000182D4454FB21E93F9BF681D20B73EF3FA9
:10367000182D4454FB21F93FE2652F227F2B7A3C21
:10368000075C143326A6813CBDCBF07A8807703CDA
:10369000075C143326A6913CC4EB98999999C9BF4D
:1036A000711623FEC671BCBF6D9A74AFF2B0B3BF82
:1036B0009AFDDE522DDEADBF2F6C6A2C44B4A2BF42
:1036C0000D5555555555D53FFF8300922449C23FAE
:1036D0006E204CC5CD45B73F513DD0A0660DB13FE2
:1036E000EB0D76244B7BA93F11DA22E33AAD903FF4
:1036F00010370008000000207C0000008024000833
:103700008C3700087C0000201C0700009024000873
:10371000000000000000204100004843F4010000C8
:10372000F40100007C000020000000000000000008
:103730000000000000000000000000000000000089
:103740000000000000000000000000000000000079
:1037500000000000000000009A9999999999094089
:103760009A99999999990140010000001000000070
:10377000000000000024F400000000000000000031
:0C3780000000000000000000000000003D
:04000005080001C529
:00000001FF
